:020000040800F2
:100000001007002065020008851D00087D1D0008FE
:10001000811D00084D040008391F00080000000081
:100020000000000000000000000000008D1D00081E
:100030005104000800000000891D0008911D0008FF
:100040007F0200087F0200087F0200087F0200088C
:100050007F0200087F0200087F0200087F0200087C
:100060007F0200087F0200087F0200087F0200086C
:100070007F0200087F0200087F0200087F0200085C
:100080007F0200087F0200087F0200087F0200084C
:100090007F0200087F0200087F0200087F0200083C
:1000A0007F0200087F0200087F0200087F0200082C
:1000B0007F0200087F0200087F0200087F0200081C
:1000C0007F0200087F0200087F0200087F0200080C
:1000D0007F0200087F0200087F0200087F020008FC
:1000E0007F0200087F0200087F0200087F020008EC
:1000F0007F0200087F0200087F0200087F020008DC
:100100007F0200087F0200087F0200087F020008CB
:100110007F0200087F0200087F0200087F020008BB
:100120007F0200087F0200087F0200087F020008AB
:100130007F02000800000000000000007F020008AD
:100140007F0200087F0200087F0200087F0200088B
:100150007F0200087F0200087F0200087F0200087B
:100160007F0200087F0200087F0200087F0200086B
:100170007F0200087F0200087F02000800000000E4
:10018000000000007F0200080000000000000000E6
:100190007F02000800000000000000007F0200084D
:1001A0000000000000000000000000007F020008C6
:1001B0007F0200087F0200087F0200087F0200081B
:1001C0007F02000800F002F800F03CF80AA090E876
:1001D000000C82448344AAF10107DA4501D100F002
:1001E00031F8AFF2090EBAE80F0013F0010F18BF93
:1001F000FB1A43F001031847F41E0000141F00000F
:10020000103A24BF78C878C1FAD8520724BF30C842
:1002100030C144BF04680C60704700000023002414
:1002200000250026103A28BF78C1FBD8520728BF06
:1002300030C148BF0B6070471FB501F03EFF1FBDC6
:1002400010B510BD00F0CDF81146FFF7F5FF01F035
:1002500075FE00F0EBF803B4FFF7F2FF03BC00F00B
:10026000EFF800000948804709480047FEE7FEE72D
:10027000FEE7FEE7FEE7FEE7FEE7FEE7FEE7FEE756
:1002800004480549054A064B70470000411E000816
:10029000C5010008100100201007002010030020F5
:1002A0001003002053EA020C00F069802DE9F04BA6
:1002B0004FF00006002B1FBFB3FA83F503FA05F4D5
:1002C00024FA05F65E4012BF1643B2FA82F502FA2E
:1002D00005F4C5F120051EBF22FA05FC44EA0C0412
:1002E000203556EA044C4FEA144418BF641C4FF002
:1002F00000084FF00009904271EB030C39D300293C
:1003000019BFB1FA81F701FA07F6B0FA80F700FADF
:1003100007F6C7F120071EBF20FA07FC46EA0C06C5
:100320002037B6FBF4FCA7EB0507103F07F01F0BC7
:10033000CBF120062CFA06F60CFA0BFB44BFB346B1
:100340000026202FA4BF5E464FF0000B5BEA060C90
:1003500008BF4FF0010B19EB0B0948EB0608ABFB8C
:10036000027C06FB02CC0BFB03CCC01B71EB0C0127
:10037000C1E70B46024641464846BDE8F08B13B53F
:10038000084318BF4FF0FF300146AFF30080BDE8CF
:100390001C40704710B5431C02E010F8011B71B1FE
:1003A0008107FAD14FF0013202C88C1A8C4314EA4B
:1003B000C211F9D0C01A0A0603D0C01E10BDC01A5F
:1003C00010BD0A0401D0801E10BD0902FCD0401EE1
:1003D00010BD7047704770470048704710000020FC
:1003E00070477546FFF7F8FFAE460500694653466D
:1003F00020F00700854618B020B5FFF741FFBDE8A3
:1004000020404FF000064FF000074FF000084FF07B
:10041000000BAC46ACE8C009ACE8C009ACE8C009C8
:10042000ACE8C00921F007018D46704710B50446BD
:10043000AFF300802046BDE81040FFF70CBF00007E
:1004400001491820ABBEFEE726000200FEE70000CF
:1004500070470000B0B5044600F0F4F8054640F2DD
:100460000000C2F200000078611C18BF044400BF05
:1004700000F0E8F8401BA042FAD3B0BD2DE9F04FE0
:1004800082B000F13E4241F6000502F1FF77C4F26E
:10049000020507224FEAB726A84208BF0622062E09
:1004A00038BF4FEAB7224FF0010A002400274FF06F
:1004B0000008009208E000BF023708F10108202F71
:1004C00004F1040400F0B4800E680AFA08F916EA90
:1004D000090FF1D0D1F804A00AF0030BABF101062B
:1004E000012E17D80322866802FA07FECA6826EA98
:1004F0000E06BA40324382604268CAF3001522EA0F
:10050000090205FA08F54FEA480C6FEA0E062A437D
:1005100042600BE00322BA40D643BBF1030FBC4656
:1005200004D1BC464FF0030B22E000BFC2688D68C7
:10053000324005FA0CF52A43BBF1020FC26017D115
:100540006FF0030202EA5802024404F01C030F2574
:10055000D2F820E005FA03FA0D692EEA0A0E05FA30
:1005600003F343EA0E031362D1F804A00AF0030B6D
:1005700002680BFA0CF332401A431AF4403F4FF072
:10058000010A026098D0002243F644030192C4F2AB
:1005900002031A6843F6004E42F480421A601A6859
:1005A000C4F2010E02F480420192019A28F0030283
:1005B0004FF6084C7244CFF6FF7C52F80C3004F032
:1005C0000C060F25B540AB43009D05FA06F63343F4
:1005D00042F80C30DEF808204B6842EA090643F680
:1005E0000C4CDD0258BF22EA0906CEF80860C4F2BE
:1005F000010CDCF800209D0242EA090658BF22EAFD
:100600000906CCF80060DEF804209D0342EA0906E2
:1006100058BF22EA0906CEF80460DEF80020DB03AA
:1006200042EA090658BF22EA0906CEF8006043E70D
:1006300002B0BDE8F08F0000002A08BF0904816104
:100640007047000040F20810C2F2000000687047D6
:1006500070B5B8B3044690F83D0028B9002084F87E
:100660003C00204600F0EEFD242084F83D00206888
:10067000016821F001010160016841F4004101605D
:10068000016821F40041016000F06AFF48F28041F6
:10069000C0F21E0140F60013D4F804E088424FF087
:1006A0000001C0F23D0348F2A16C4FF0000238BFD8
:1006B00001219842C0F2010C38BF0122E64538BF43
:1006C0000A460AB1012070BD4DF68361C4F21B31A8
:1006D000A0FB01122168950C4B684FF4967623F02D
:1006E0003F0343EA9243754344F6D3564B60C1F24D
:1006F00062060B6AA5FB0656B50923F03F03E645E3
:1007000038BF950C6A1C1A430A62CA6948F2A0668F
:100710004CF6FF73C0F20106B64522EA03020BD87D
:1007200001384FEA4E03B0FBF3F001306FF31F3096
:10073000042898BF04201EE0A368013863B1192380
:100740000EFB03F3B0FBF3F001306FF31F3078B111
:1007500000F5804008E000BF0EEB4E03B0FBF3F065
:1007600001306FF31F3028B100F5004003E000BFF7
:10077000012000E001201043C8610868D4E9072384
:1007800020F0C000104318430860886848F2FF3228
:1007900004F10C0690434CCE18431043A5698860C1
:1007A000C86820F0FF0030432843C860086840F064
:1007B0000100086000202021206484F83D1020639F
:1007C00084F83E0070BD00002DE9F04182B01F4664
:1007D000164688460446FFF735FF94F83D10202959
:1007E0001CD1054620688169890713D5FFF72AFFC8
:1007F000401B1928F6D900202021206384F83D10E1
:1008000084F83E00216C41F02001216484F83C0012
:1008100004E000BF94F83C10012903D1022002B08B
:10082000BDE8F081012184F83C100168C90703D1BB
:10083000016841F001010160016821F4006101607B
:10084000222184F83D10102184F83E1000212164FB
:1008500066626785618D21850021CFF6FF71E162B7
:10086000E16A026811F5803F42F48062026018BFBD
:10087000012919D1016841F4807101604169089E24
:10088000C90724D1711C18D0002E00F0CB8000BF06
:10089000FFF7D8FE401BB04200F2C68020684169D5
:1008A000C907F5D013E000BF0829E3D0216B112957
:1008B000E0D0E3E74169C90709D14169C90706D119
:1008C0004169C90704BF41695FEAC171F2D021697A
:1008D000B1F5804F08D148F00101C9B20161416909
:1008E000890740F1CC8003E1062101EAD81707F11E
:1008F000F00101614169090738D44169721C01F4B2
:10090000806113D0002940F0EA80002E00F01082B0
:10091000FFF798FE401BB04200F20C82206841694C
:10092000090723D441694905F2D5D8E0002940F0F0
:10093000D6804169090719D44169490500F1CF8082
:100940004169090712D44169490500F1C88041692C
:1009500009070BD44169490500F1C18041690907C4
:1009600004D441694905E4D5B9E000BF5FFA88F1D4
:1009700001614169890739D44169721C01F48061C0
:1009800014D0002940F0AB80002E00F0D181FFF799
:1009900059FE401BB04200F2CD81206841698907B1
:1009A00024D441694905F2D599E000BF002940F0FF
:1009B00096804169890719D44169490500F18F8002
:1009C0004169890712D44169490500F1888041696C
:1009D00089070BD44169490500F181804169890784
:1009E00004D441694905E4D579E000BF00210191B3
:1009F00041690191816901910199016841F4807116
:100A000001604169C90734D1711C28D056B1FFF784
:100A100019FE401BB04207D820684169C907F6D0CB
:100A200027E000BFFFF70EFE00202021206384F89E
:100A30003D1084F83E00216C41F0200121642168C2
:100A400084F83C000868C00544BF4FF4007020647F
:100A5000012002B0BDE8F0814169C90709D14169AF
:100A6000C90706D14169C90704BF41695FEAC1717D
:100A7000F2D047F0F10101614169890738D4416939
:100A8000721C01F4806111D049BB002E00F050812E
:100A9000FFF7D8FD401BB04200F24C81206841694D
:100AA000890725D441694905F2D518E0B9B94169EA
:100AB00089071DD44169490511D44169890717D4B3
:100AC000416949050BD44169890711D44169490538
:100AD00005D4416989070BD441694905E7D5016807
:100AE00041F4007101606FF480614161042022E1F2
:100AF000218D99B1022927D001292DD1026822F434
:100B00008062026000220192426901928269019230
:100B1000019A026842F40072026028E0002101910B
:100B200041690191816901910199016841F4007164
:100B30000160202084F83D00002084F83E0084F805
:100B40003C0002B0BDE8F081026822F480620260DD
:100B5000026842F4006202E0026842F480620260CD
:100B6000002201924269019280690190019888B245
:100B7000032817D802283FD0012851D1002E00F0B9
:100B800099802068014651F8142F520600F1968092
:100B90000868C00600F1F280FFF754FD401BB04228
:100BA000EFD9E0E086B100BF2068014651F8142F6C
:100BB00052060ED40868C00600F1E080FFF742FD3F
:100BC000401BB042F0D9CEE020684169490640F1AF
:100BD000C3800069616A0870606A218D0130013943
:100BE000606221852268638D013B638553695B07E1
:100BF00070D51169017064E020684169490745D4E6
:100C0000711C6BD0002E00F0CD80FFF71BFD401B48
:100C1000B04200F2C980206841694907F5D535E046
:100C20002068416949070ED4711C65D0002E00F080
:100C3000B980FFF707FD401BB04200F2B580206885
:100C400041694907F5D5016821F4806101600069B7
:100C5000616A0870606A218D013001396062218506
:100C60002068618D01396185416949070ED4711C85
:100C700050D0002E00F09680FFF7E4FC401BB042FD
:100C800000F29280206841694907F5D5016841F476
:100C9000007101600069616A0870606A2268411C25
:100CA0006162218D01392185618D0139618511696B
:100CB000417006E02068416949064DD50069616AC6
:100CC0000870606A218D0130013960622185608D74
:100CD0000138608508047FF44AAF2AE74169490773
:100CE000D4D4416949075CBF41695FEA4171CDD401
:100CF00041694907F2D5C9E741694907A3D4416968
:100D000049075CBF41695FEA41719CD44169490769
:100D1000F2D598E741694907B8D4416949075CBFF2
:100D200041695FEA4171B1D441694907F2D5ADE744
:100D3000FFF788FC202000212022216384F83D2039
:100D400084F83E10226C1043206484F83C1001208B
:100D500002B0BDE8F08100BF50F8141FC90601467B
:100D60000CD4FFF76FFC00202021206384F83D1095
:100D700084F83E00206C40F020000AE06FF0100084
:100D8000086000202021206384F83D1084F83E0094
:100D9000206C2064002084F83C00012002B0BDE8F3
:100DA000F08100BFFFF74EFC00202021206384F873
:100DB0003D1084F83E00216C41F02001216484F84C
:100DC0003C00012002B0BDE8F08100002DE9F043B5
:100DD00081B01F46164688460446FFF733FC94F858
:100DE0003D10202920D1054620688169890717D543
:100DF000FFF728FC401B1928F6D90020202120638A
:100E000084F83D1084F83E00216C022641F0200158
:100E1000216484F83C00304601B0BDE8F08300BF97
:100E200094F83C10012905D10226304601B0BDE8F6
:100E3000F08300BF012184F83C100168C90703D189
:100E4000016841F001010160016821F40061016065
:100E5000212184F83D10102184F83E1000212164E6
:100E600066626785618D21850021CFF6FF71E162A1
:100E7000E16A11F5803F18BF012919D1016841F4D9
:100E8000807101604169DDF82090C90723D119F113
:100E9000010116D0B9F1000F46D000BFFFF7D2FB19
:100EA000401B484542D820684169C907F6D012E086
:100EB0000829E3D0216B1229E0D0E3E74169C90793
:100EC00009D14169C90706D14169C90704BF416910
:100ED0005FEAC171F2D02169B1F5804F02D1FE21E4
:100EE00061E000BF062101EAD811F03101614169DA
:100EF000090757D4416919F1010201F480612FD02B
:100F0000002946D1B9F1000F00F04281FFF79AFBAA
:100F1000401B484500F23E8120684169090741D4E1
:100F200041694905F2D534E0FFF78CFB0020202110
:100F3000206384F83D1084F83E00216C012641F0C6
:100F400020012164216884F83C000868C00544BF82
:100F50004FF400702064304601B0BDE8F08300BF5C
:100F6000B9B9416909071DD44169490511D44169DD
:100F7000090717D4416949050BD44169090711D400
:100F80004169490505D4416909070BD441694905FF
:100F9000E7D5016841F4007101606FF4806141613F
:100FA0000420F8E0FF2101EA080101614169890795
:100FB0003AD4416919F1010201F4806112D051BBA8
:100FC000B9F1000F00F0E080FFF73CFB401B484503
:100FD00000F2DC8020684169890725D44169490510
:100FE000F2D518E0B9B9416989071DD441694905AD
:100FF00011D44169890717D4416949050BD4416966
:10100000890711D44169490505D4416989070BD481
:1010100041694905E7D5016841F4007101606FF449
:10102000806141610420B6E000260096416900918C
:10103000816900910099218D002900F0958009F1C6
:101040000108014651F8142F120635D4B8F1000FEB
:1010500016D0B9F1000F00F0AF8000BF086840055E
:1010600000F1B280FFF7EEFA401B484500F2A9807C
:101070002068014651F8142F1206EFD51CE000BF7E
:101080000A68520500F1A0800A68120614D40A68A2
:10109000520500F199800A6812060DD40A685205BB
:1010A00000F192800A68120606D40A68520500F11F
:1010B0008B800A681206E3D5636A194611F8012B82
:1010C00002616162618D01396185278D0146A7F159
:1010D000010CA4F828C051F8142F52070DD55FEA6F
:1010E0000C420AD05A78A7F1020C02619A1C626283
:1010F000628D013A6285A4F828C00A6852072FD48D
:10110000B8F1000F14D0B9F1000F7BD0086840058A
:1011100000F18080FFF796FA401B484577D8206899
:10112000014651F8142F5207F0D5B4F828C017E043
:101130000A6852056ED40A68520711D40A6852052B
:1011400068D40A6852070BD40A68520562D40A6848
:10115000520705D40A6852055CD40A685207E7D5DD
:101160005FEA0C417FF46DAF016841F400710160EA
:10117000202084F83D0084F83E6084F83C603046CE
:1011800001B0BDE8F08300BFFFF75CFA202002E069
:10119000FFF758FA202000212022216384F83D2007
:1011A00084F83E10226C01261043206484F83C1021
:1011B000304601B0BDE8F0830868400504D4FFF76D
:1011C00041FA202004E000BF6FF480600860042032
:1011D00000212022216384F83D2084F83E10226CF7
:1011E0001043206484F83C10206C042825D120682A
:1011F0000126016841F400710160304601B0BDE88C
:10120000F08300BF0868400504D4FFF71BFA2020D4
:1012100004E000BF6FF480600860042000212022F9
:10122000216384F83D2084F83E10226C1043206432
:1012300084F83C10206C0428D9D00126304601B037
:10124000BDE8F083B0B586B0016845F20040C4F255
:101250000000814202D006B0B0BD00BF002443F6BA
:1012600030050194C4F20205296800F5D83041F038
:1012700002012960296801F00201019101994FF4EE
:10128000407101911221CDE902140321049104213E
:10129000059101A9FFF7F2F80094286940F40010C5
:1012A0002861286900F400100090009806B0B0BDD5
:1012B00040F2000040F20811C2F20000C2F2000148
:1012C00000780A68104408607047000080B543F653
:1012D0000040C4F20200016841F40071016001683D
:1012E00041F480610160016841F480710160032074
:1012F00000F076F8002000F005F800F027F8002054
:1013000080BD000070B540F20006C2F2000640F257
:1013100008013278C2F200014FF47A730968B3FB16
:10132000F2F20446B1FBF2F1084600F06BFB0F2C21
:101330004FF0010508D838B94FF0FF3021460022A0
:10134000002500F021F87460284670BD82B00020AE
:1013500043F640010190C4F202014A6842F480421F
:101360004A604A6802F480420192019A009008683B
:1013700040F080500860086800F0805000900098AD
:10138000072002B000F02CB810B54EF60C5CCEF27F
:10139000000CDCF80030C3F3022E8EF00704042C9E
:1013A00028BF0424BEF103034FF0FF3E0EFA04F4FD
:1013B00038BF0023A14399400EFA03F39A43114327
:1013C00000F00F02043A624409010C3200F160435C
:1013D000B0F1FF3FC8BF03F56442117010BD0000BB
:1013E0004EF60C51CEF200010A684FF6FF031A4088
:1013F00060F30A2242F0806040F0FD7008607047A0
:101400002DE9F041002800F08B8043F60808C4F273
:1014100002080446D8F8F8030D4600F00F00884291
:1014200007D288F8F853D8F8F80300F00F00A84264
:1014300076D12068810717D5410705D5D8F8001067
:1014400041F4E051C8F80010010705D5D8F80010A4
:1014500041F46041C8F80010D8F80010A26821F0EB
:10146000F0011143C8F80010C0073FD1D8F8F803C5
:1014700000F00F00A84207D988F8F853D8F8F8030D
:1014800000F00F00A8424BD12068410707D5D8F8DB
:101490000010E26821F4E0511143C8F80010000781
:1014A00008D5D8F80000216920F4604040EAC10066
:1014B000C8F8000000F07CF8D8F8001042F2D4021E
:1014C000C1F30311C0F60002515C40F2080220FA99
:1014D00001F140F20400C2F200000068C2F2000212
:1014E0001160FFF70FFF0020BDE8F0816068811EEA
:1014F000022907D258F8081C89015CBF0120BDE809
:10150000F08111E0012807D158F8081C89035CBF5D
:101510000120BDE8F08107E058F8081C890703D4D2
:101520000120BDE8F08100BFD8F8001021F00301D0
:101530000843C8F80000FFF785F8064641F28837EF
:10154000D8F80000616800F00C00B0EB810F8DD07E
:10155000FFF778F8801BB842F2D90320BDE8F0818C
:1015600040F2080043F60801C2F20000C4F2020192
:101570000068096842F2E402C1F38221C0F6000269
:10158000515CC8407047000040F2080043F6080173
:10159000C2F20000C4F202010068096842F2E402EB
:1015A000C1F34231C0F60002515CC84070470000F0
:1015B00010B543F60404C4F202046068C0F381016C
:1015C00042F20040C0F2F400DFE801F044020818E3
:1015D00041F20020C0F27A0010BD00BF216801F086
:1015E0003F02216823684902C3F3881116D4A1FB86
:1015F00000010023FEF756FE17E000BF216801F04E
:101600003F02216823684902C3F3881116D4A1FB65
:1016100000010023FEF746FE17E000BF41F2002064
:10162000C0F27A004843B0FBF2F021680222C1F315
:10163000014102EB4101B0FBF1F010BD41F200208D
:10164000C0F27A004843B0FBF2F02168C1F30271A6
:10165000B0FBF1F010BD00002DE9F04182B0002890
:1016600000F096800446007843F60006C007C4F2F6
:1016700002062BD0B06800F00C00042820D0B0681F
:1016800000F00C00082802D17068400218D4B0683D
:1016900000F00C000C2802D17068400210D4606881
:1016A000B0F5803F07D0B0F5A02F40F03B81306807
:1016B00040F480203060306840F4803030603BE19E
:1016C0003068800302D56068002861D020788007E8
:1016D00022D5B06810F00C0F11D0B06800F00C00EB
:1016E000082802D17068400209D5B06800F00C00EB
:1016F0000C2840F09F807068400200F19B803068A9
:10170000800702D5E068012842D13068216920F0C5
:10171000F80040EAC1003060207800073CD420780F
:10172000400751D4A5698DB3B06800F00C000828BB
:1017300040F0A880012D2BD07068E16900F4800290
:101740008A4225D1216A00F03F028A4220D147F621
:10175000C071626A0140B1EB821F19D1A26A0023F5
:10176000CFF6FF7303EBC23200F440316FF30F0288
:1017700091420DD1E16A00F07062B2EB016F07D1C6
:10178000216B00F0E040B0EB017F01D1002035E19A
:10179000012002B0BDE8F0816069002840F200003D
:1017A000C4F247205ED00121C0F8801EFEF74AFF38
:1017B000054600BF706F8007B1D4FEF743FF401BA2
:1017C0000228F7D9C5E000BF306C10F080580AD16C
:1017D00000200190306C40F080503064306C00F09C
:1017E00080500190019847F20007C4F20007386862
:1017F000C00511D4386840F480703860FEF722FFCD
:10180000054600BF3868C00506D4FEF71BFF401B25
:101810000228F7D99DE000BFA068012805D005285F
:1018200052D1306F40F004003067306F40F001005B
:10183000306753E0E068002860D00020C4F2472001
:1018400001210160FEF7FEFE054600BF30688007FB
:101850003FF55BAFFEF7F6FE401B02284FF003009A
:10186000F4D9CBE00021C0F8801EFEF7EBFE054660
:10187000706F80077FF553AFFEF7E4FE401B022830
:10188000F6D966E00027C4F2472700203866FEF745
:10189000D9FE022D05460BD1306880015ED5FEF7DA
:1018A000D1FE401B02284FF00300F5D9A6E000BF8F
:1018B000306880017FF56AAFFEF7C4FE401B022846
:1018C0004FF00300F4D999E0316F002821F00101B5
:1018D0003167316F21F00401316765D0FEF7B2FE48
:1018E000054641F2883700BF306F80076ED4FEF79F
:1018F000A9FE401BB842F7D92BE000BF0020C4F27C
:10190000472000210160FEF79DFE054630688007F4
:101910007FF502AFFEF796FE401B02284FF0030052
:10192000F4D96BE03168002821F4803131603168EE
:1019300021F48021316053D0FEF784FE054600BFBC
:10194000306880033FF5C2AEFEF77CFE401B642882
:10195000F6D9032002B0BDE8F08100BF04F11C05F8
:101960002FCD246B08430021CFF6FF7140EA82108F
:1019700001EBC3316FF30F0140EA0560084340EA11
:101980000470706001203866FEF75CFE044600BFFC
:10199000306880013FF5FAAEFEF754FE001B0228C6
:1019A0004FF00300F4D929E0FEF74CFE054641F262
:1019B000883700BF306F800708D5FEF743FE401B15
:1019C000B8424FF00300F5D918E000BFB8F1000F9E
:1019D0007FF4A8AE306C20F080503064A2E600BFE7
:1019E000FEF730FE0546306880037FF56FAEFEF7E8
:1019F00029FE401B64284FF00300F4D902B0BDE873
:101A0000F0810000411E0020B0EB116F1CBF0120CF
:101A100070474EF21002CEF2000251604EF6235192
:101A2000CEF20001F0230B70072190601160704727
:101A3000002804BF0120704710B5044690F83D000F
:101A400028B9002084F83C00204600F021F824202A
:101A500084F83D002068C16821F40051C16020462F
:101A600000F0F8F92068016921F4904101614169B1
:101A700021F02A014161C16841F40051C160002098
:101A80002021206484F83D1084F83E1010BD000031
:101A900080B586B0016844F20040C4F20000814283
:101AA00002D006B080BD00BF002143F63002019194
:101AB000C4F20202136900F5DE3043F4003313610F
:101AC000136903F400330193019B0191136843F000
:101AD00001031360126802F001020192019A0C22C4
:101AE00001920222CDE902210321049107210591EF
:101AF00001A9FEF7C3FC06B080BD00002DE9F0434C
:101B000081B0044690F83D0020280DD10F460029F1
:101B10004FF0010000F0DD801646002A00F0D98069
:101B200094F83C00012803D1022001B0BDE8F08305
:101B3000012084F83C004FF0000921201D46C4F824
:101B4000409084F83D00FEF77DFDA684E684A16800
:101B50000646B1F5805F07D1206900281CBF3846D2
:101B60004F46B846074601E04FF0000884F83C9025
:101B7000E18C2068002900F08B8005F101090AE062
:101B800047B317F8011B4160E18C0139E184E18C16
:101B9000002900F07D8001680906F1D4B9F1000F39
:101BA0000AD0EDB1FEF74EFD801BA84218D8206880
:101BB00001680906F6D5E3E701680906E0D4016883
:101BC00009065CBF01685FEA0161D9D401680906B2
:101BD000F2D5D5E738F8021B00276FF35F21D2E773
:101BE000206850E8030F216820F4D07041E8030218
:101BF000BAB3206850E8030F216820F4D07041E8A0
:101C0000030272B3206850E8030F216820F4D070FB
:101C100041E803022AB3206850E8030F216820F44A
:101C2000D07041E80302002ADAD11AE0206850E8B7
:101C3000050F216820F0010041E80502DAB12068B3
:101C400050E8050F216820F0010041E8050292B13B
:101C5000206850E8050F216820F0010041E80502E6
:101C60004AB1206850E8050F216820F0010041E8E2
:101C70000502002ADAD1202084F83D0084F83E00D5
:101C8000002084F83C00032001B0BDE8F08300BFD1
:101C90000168490619D4FDB1691C0DD101684906D6
:101CA00013D4016849065CBF01685FEA41610CD446
:101CB00001684906F2D508E0FEF7C4FC801BA84283
:101CC0000AD8206800684006F6D5202084F83D0038
:101CD000002001B0BDE8F083206850E8030F2168C0
:101CE00020F4D07041E80302E2B3206850E8030F0B
:101CF000216820F4D07041E803029AB3206850E8CC
:101D0000030F216820F4D07041E8030252B3206829
:101D100050E8030F216820F4D07041E80302002A44
:101D2000DAD11FE0206850E8050F216820F001009B
:101D300041E80502002A9ED0206850E8050F21687E
:101D400020F0010041E80502002A3FF494AF20682A
:101D500050E8050F216820F0010041E80502002A43
:101D60003FF489AF206850E8050F216820F001009A
:101D700041E80502002AD5D17DE70000FEE700001A
:101D8000FEE70000FEE7000070470000704700001B
:101D9000FFF78EBAB0B594B0002443F640000C941F
:101DA000CDE90A44CDE908440694CDE90444CDE9DF
:101DB00002440194C4F202000168012241F0805102
:101DC00001600068022500F080500190019847F200
:101DD00000000194C4F20000016862F38F310160D9
:101DE000006800F440400190019810200B900F9083
:101DF0004FF4A87010900420CDE9110507A80795AD
:101E00000A92CDE90D541395FFF726FC20B1EFF3AC
:101E1000108072B6FEE700BF0F20CDE902054FF437
:101E20008050CDE9050402A802210494FFF7E8FAE6
:101E300020B1EFF3108072B6FEE700BF14B0B0BD62
:101E40004EF68850CEF20000016841F47001016046
:101E50007047000010B504460068D4E902C2236947
:101E6000016921F4405111430161626943EA0C01A7
:101E7000E3691143C268194349F20C639A43114361
:101E8000C1604169A26921F4407141F200431143EC
:101E900040F48062C4F201039A42416102D1FFF72B
:101EA00073FB01E0FFF75CFBE16963681922B1F5A0
:101EB000004FA0FB02011FD15A00DB0FFEF7F2F921
:101EC00048F21F51C5F2EB11A0FB01235A096FF034
:101ED000630302FB0300322303EBC000A0FB0101FC
:101EE0004FF4F87000EA111000EB0210C1F3421138
:101EF00008442168886010BD9A009B0FFEF7D2F954
:101F000048F21F51C5F2EB11A0FB01235A096FF0F3
:101F1000630302FB0300322303EB0010A0FB01016B
:101F2000F02000EA511000EB0210C1F34311084405
:101F30002168886010BD0000FEE7000088B0002422
:101F4000C4F20204FFF7C2F9FFF724FF002643F6AC
:101F50003000CDE906660296C4F202000168002254
:101F600041F0040101600168202701F004010291A1
:101F700002990296016841F080010160016801F058
:101F80008001029102990296016841F0010101600D
:101F9000016801F00101029102990296016841F085
:101FA000020101600068202100F002000290029806
:101FB0002046FEF741FB4FF4005003904FF404100D
:101FC00003ADCDE9040604F500602946FEF756FA94
:101FD0000120CDE904062046294603970696FEF720
:101FE0004DFA40F27000A4F5D631C2F2000048F27A
:101FF000A0624FF48043C0F2010280E84600C0E9CD
:102000000363C0E90566C0E90766FEF721FB28B156
:10201000EFF3108072B600BFFEE700BF40F2C400CD
:10202000A4F5DE31C2F200000C234FF4E13280E867
:102030004600C0E90366C0E90536C661FFF7F8FC53
:1020400020B1EFF3108072B6FEE700BF40F27004DB
:1020500040F2C4054FF0D0094FF0610A0A26C2F2DF
:1020600000040DF108080DF1070B03AFC2F20005E3
:102070002046EC21424601238DF808908DF807A0F8
:102080000096FEF7A3FE2046ED215A460123009656
:10209000FEF79AFB9DF807008DF80C003846FEF716
:1020A00079F982B2284639464FF0FF33FFF726FD13
:1020B0004FF4FA70FEF7CEF9DAE7F1EE100A4FF6B8
:1020C000FF71C0F2C03120EA010040F04070E1EE43
:1020D000100A704700000000000000000102030425
:1020E000060708090000000001020304102100088F
:1020F000000000201000000000020008202100085D
:1021000010000020000700001C0200080000000072
:1021100001000000100000000024F4000000000096
:04000005080001C529
:00000001FF
