:020000040800F2
:100000001007002065020008A11B000871160008F7
:100010009D1B00084D040008551D0008000000004D
:10002000000000000000000000000000A91B000804
:100030005104000800000000A51B0008AD1B0008CB
:100040007F0200087F0200087F0200087F0200088C
:100050007F0200087F0200087F0200087F0200087C
:100060007F0200087F0200087F0200087F0200086C
:100070007F0200087F0200087F0200087F0200085C
:100080007F0200087F0200087F0200087F0200084C
:100090007F0200087F0200087F0200087F0200083C
:1000A0007F0200087F0200087F0200087F0200082C
:1000B0007F0200087F0200087F0200087F0200081C
:1000C0007F0200087F0200087F0200087F0200080C
:1000D0007F0200087F0200087F0200087F020008FC
:1000E0007F0200087F0200087F0200087F020008EC
:1000F0007F0200087F0200087F0200087F020008DC
:100100007F0200087F0200087F0200087F020008CB
:100110007F0200087F0200087F0200087F020008BB
:100120007F0200087F0200087F0200087F020008AB
:100130007F02000800000000000000007F020008AD
:100140007F0200087F0200087F0200087F0200088B
:100150007F0200087F0200087F0200087F0200087B
:100160007F0200087F0200087F0200087F0200086B
:100170007F0200087F0200087F02000800000000E4
:10018000000000007F0200080000000000000000E6
:100190007F02000800000000000000007F0200084D
:1001A0000000000000000000000000007F020008C6
:1001B0007F0200087F0200087F0200087F0200081B
:1001C0007F02000800F002F800F03CF80AA090E876
:1001D000000C82448344AAF10107DA4501D100F002
:1001E00031F8AFF2090EBAE80F0013F0010F18BF93
:1001F000FB1A43F001031847001D0000201D0000FA
:10020000103A24BF78C878C1FAD8520724BF30C842
:1002100030C144BF04680C60704700000023002414
:1002200000250026103A28BF78C1FBD8520728BF06
:1002300030C148BF0B6070471FB501F044FE1FBDC1
:1002400010B510BD00F0CDF81146FFF7F5FF01F035
:1002500083FD00F0EBF803B4FFF7F2FF03BC00F0FE
:10026000EFF800000948804709480047FEE7FEE72D
:10027000FEE7FEE7FEE7FEE7FEE7FEE7FEE7FEE756
:1002800004480549054A064B704700005D1C0008FC
:10029000C5010008100100201007002010030020F5
:1002A0001003002053EA020C00F069802DE9F04BA6
:1002B0004FF00006002B1FBFB3FA83F503FA05F4D5
:1002C00024FA05F65E4012BF1643B2FA82F502FA2E
:1002D00005F4C5F120051EBF22FA05FC44EA0C0412
:1002E000203556EA044C4FEA144418BF641C4FF002
:1002F00000084FF00009904271EB030C39D300293C
:1003000019BFB1FA81F701FA07F6B0FA80F700FADF
:1003100007F6C7F120071EBF20FA07FC46EA0C06C5
:100320002037B6FBF4FCA7EB0507103F07F01F0BC7
:10033000CBF120062CFA06F60CFA0BFB44BFB346B1
:100340000026202FA4BF5E464FF0000B5BEA060C90
:1003500008BF4FF0010B19EB0B0948EB0608ABFB8C
:10036000027C06FB02CC0BFB03CCC01B71EB0C0127
:10037000C1E70B46024641464846BDE8F08B13B53F
:10038000084318BF4FF0FF300146AFF30080BDE8CF
:100390001C40704710B5431C02E010F8011B71B1FE
:1003A0008107FAD14FF0013202C88C1A8C4314EA4B
:1003B000C211F9D0C01A0A0603D0C01E10BDC01A5F
:1003C00010BD0A0401D0801E10BD0902FCD0401EE1
:1003D00010BD7047704770470048704710000020FC
:1003E00070477546FFF7F8FFAE460500694653466D
:1003F00020F00700854618B020B5FFF741FFBDE8A3
:1004000020404FF000064FF000074FF000084FF07B
:10041000000BAC46ACE8C009ACE8C009ACE8C009C8
:10042000ACE8C00921F007018D46704710B50446BD
:10043000AFF300802046BDE81040FFF70CBF00007E
:1004400001491820ABBEFEE726000200FEE70000CF
:1004500070470000B0B5044600F0F4F8054640F2DD
:100460000000C2F200000078611C18BF044400BF05
:1004700000F0E8F8401BA042FAD3B0BD2DE9F04FE0
:1004800082B000F13E4241F6000502F1FF77C4F26E
:10049000020507224FEAB726A84208BF0622062E09
:1004A00038BF4FEAB7224FF0010A002400274FF06F
:1004B0000008009208E000BF023708F10108202F71
:1004C00004F1040400F0B4800E680AFA08F916EA90
:1004D000090FF1D0D1F804A00AF0030BABF101062B
:1004E000012E17D80322866802FA07FECA6826EA98
:1004F0000E06BA40324382604268CAF3001522EA0F
:10050000090205FA08F54FEA480C6FEA0E062A437D
:1005100042600BE00322BA40D643BBF1030FBC4656
:1005200004D1BC464FF0030B22E000BFC2688D68C7
:10053000324005FA0CF52A43BBF1020FC26017D115
:100540006FF0030202EA5802024404F01C030F2574
:10055000D2F820E005FA03FA0D692EEA0A0E05FA30
:1005600003F343EA0E031362D1F804A00AF0030B6D
:1005700002680BFA0CF332401A431AF4403F4FF072
:10058000010A026098D0002243F644030192C4F2AB
:1005900002031A6843F6004E42F480421A601A6859
:1005A000C4F2010E02F480420192019A28F0030283
:1005B0004FF6084C7244CFF6FF7C52F80C3004F032
:1005C0000C060F25B540AB43009D05FA06F63343F4
:1005D00042F80C30DEF808204B6842EA090643F680
:1005E0000C4CDD0258BF22EA0906CEF80860C4F2BE
:1005F000010CDCF800209D0242EA090658BF22EAFD
:100600000906CCF80060DEF804209D0342EA0906E2
:1006100058BF22EA0906CEF80460DEF80020DB03AA
:1006200042EA090658BF22EA0906CEF8006043E70D
:1006300002B0BDE8F08F0000002A08BF0904816104
:100640007047000040F20810C2F2000000687047D6
:1006500070B5B8B3044690F83D0028B9002084F87E
:100660003C00204600F068FA242084F83D00206811
:10067000016821F001010160016841F4004101605D
:10068000016821F40041016000F0E4FB48F2804180
:10069000C0F21E0140F60013D4F804E088424FF087
:1006A0000001C0F23D0348F2A16C4FF0000238BFD8
:1006B00001219842C0F2010C38BF0122E64538BF43
:1006C0000A460AB1012070BD4DF68361C4F21B31A8
:1006D000A0FB01122168950C4B684FF4967623F02D
:1006E0003F0343EA9243754344F6D3564B60C1F24D
:1006F00062060B6AA5FB0656B50923F03F03E645E3
:1007000038BF950C6A1C1A430A62CA6948F2A0668F
:100710004CF6FF73C0F20106B64522EA03020BD87D
:1007200001384FEA4E03B0FBF3F001306FF31F3096
:10073000042898BF04201EE0A368013863B1192380
:100740000EFB03F3B0FBF3F001306FF31F3078B111
:1007500000F5804008E000BF0EEB4E03B0FBF3F065
:1007600001306FF31F3028B100F5004003E000BFF7
:10077000012000E001201043C8610868D4E9072384
:1007800020F0C000104318430860886848F2FF3228
:1007900004F10C0690434CCE18431043A5698860C1
:1007A000C86820F0FF0030432843C860086840F064
:1007B0000100086000202021206484F83D1020639F
:1007C00084F83E0070BD00002DE9F04784B09846E3
:1007D00017460E460446FFF735FF94F83D102029D2
:1007E00023D1054620688169890719D5FFF72AFFBB
:1007F000401B1928F6D900202021206384F83D10E1
:1008000084F83E00206C04F13C0940F02000206494
:100810000220002189F8001004B0BDE8F08700BF75
:10082000A14619F83C1F012904D1022004B0BDE8FB
:10083000F08700BF012289F800200368DDE90D1A66
:100840000C9ADB0703D1036843F0010303600368DC
:1008500023F400630360222084F83D00402084F8E4
:100860003E000020206462626185608D31462085F3
:100870000020CFF6FF70E06220463A464346CDF8AE
:1008800000A0019500F0F6FE20B1012004B0BDE803
:10089000F08700BF208DA8B102282BD0012835D1C8
:1008A00021680A6822F480620A60002203924A6981
:1008B00003928A690392039A0A6842F400720A60FA
:1008C0002CE000BF002003902068416903918169FA
:1008D00003910399016841F400710160202084F8BC
:1008E0003D00002084F83E00002189F8001004B08B
:1008F000BDE8F08721680A6822F480620A600A680D
:1009000042F400620A600022039202E00021039197
:1009100021684A6903928969039103990AF10106E2
:1009200080B2032818D8022842D0012856D1BAF143
:10093000000F00F0AB802068014651F8142F5206DA
:1009400000F1A8800868C00600F1E280FFF77AFE97
:10095000401B5045EFD9D0E0BAF1000F10D000BFD6
:100960002068014651F8142F52060ED40868C006BC
:1009700000F1CE80FFF766FE401B5045F0D9BCE089
:1009800020684169490640F1B1800069616A0870D8
:10099000606A2268411C208D616201382085638D68
:1009A000013B638553695B0740F18080106973E008
:1009B00020684169490747D4002E59D0BAF1000F89
:1009C00000F09980FFF73EFE401B504500F29580F5
:1009D000206841694907F5D536E000BF20684169C4
:1009E00049070FD4002E65D0BAF1000F00F08380C4
:1009F000FFF728FE401B504500F27F8020684169C8
:100A00004907F5D5016821F4806101600069616AD8
:100A10000870606A218D013001396062218520688B
:100A2000618D01396185416949070DD4002E4FD090
:100A3000BAF1000F5FD0FFF705FE401B50455CD8B0
:100A4000206841694907F6D5016841F400710160E9
:100A50000069616A0870606A2268411C6162218DC8
:100A600001392185618D013961851169417014E079
:100A700041694907E8D4416949075CBF41695FEAB8
:100A80004171E1D441694907F2D5DDE72068416948
:100A900049062BD50069616A0870606A218D0130B2
:100AA0006062481E2085618D0139618501047FF4F3
:100AB00037AF13E741694907A4D4416949075CBFCF
:100AC00041695FEA41719DD441694907F2D599E7CF
:100AD00041694907B8D4416949075CBF41695FEA88
:100AE0004171B1D441694907F2D5ADE750F8141FFF
:100AF000C90601460CD4FFF7A5FD00202021206384
:100B000084F83D1084F83E00206C40F020000AE09C
:100B10006FF01000086000202021206384F83D1051
:100B200084F83E00206C20640120002189F8001028
:100B300004B0BDE8F0870000B0B586B0016845F2AA
:100B40000040C4F20000814202D006B0B0BD00BF38
:100B5000002443F630050194C4F20205296800F52B
:100B6000D83041F002012960296801F002010191A9
:100B700001994FF4407101911221CDE90214032132
:100B800004910421059101A9FFF778FC00942869DC
:100B900040F400102861286900F4001000900098CB
:100BA00006B0B0BD40F2000040F20811C2F20000F1
:100BB000C2F2000100780A68104408607047000023
:100BC00080B543F60040C4F20200016841F40071B0
:100BD0000160016841F480610160016841F4807145
:100BE0000160032000F076F8002000F005F800F026
:100BF00027F8002080BD000070B540F20006C2F268
:100C0000000640F208013278C2F200014FF47A7314
:100C10000968B3FBF2F20446B1FBF2F1084600F0BA
:100C20006BFB0F2C4FF0010508D838B94FF0FF309F
:100C300021460022002500F021F87460284670BD8E
:100C400082B0002043F640010190C4F202014A68DC
:100C500042F480424A604A6802F480420192019A5A
:100C60000090086840F080500860086800F08050EC
:100C700000900098072002B000F02CB810B54EF696
:100C80000C5CCEF2000CDCF80030C3F3022E8EF0C8
:100C90000704042C28BF0424BEF103034FF0FF3ED9
:100CA0000EFA04F438BF0023A14399400EFA03F36F
:100CB0009A43114300F00F02043A624409010C32D6
:100CC00000F16043B0F1FF3FC8BF03F5644211700B
:100CD00010BD00004EF60C51CEF200010A684FF62E
:100CE000FF031A4060F30A2242F0806040F0FD707A
:100CF000086070472DE9F041002800F08B8043F632
:100D00000808C4F202080446D8F8F8030D4600F0BB
:100D10000F00884207D288F8F853D8F8F80300F09B
:100D20000F00A84276D12068810717D5410705D565
:100D3000D8F8001041F4E051C8F80010010705D5BB
:100D4000D8F8001041F46041C8F80010D8F800103D
:100D5000A26821F0F0011143C8F80010C0073FD18C
:100D6000D8F8F80300F00F00A84207D988F8F85324
:100D7000D8F8F80300F00F00A8424BD120684107D3
:100D800007D5D8F80010E26821F4E0511143C8F803
:100D90000010000708D5D8F80000216920F4604051
:100DA00040EAC100C8F8000000F07CF8D8F8001054
:100DB00041F6E062C1F30311C0F60002515C40F25B
:100DC000080220FA01F140F20400C2F200000068BB
:100DD000C2F200021160FFF70FFF0020BDE8F081B2
:100DE0006068811E022907D258F8081C89015CBF7F
:100DF0000120BDE8F08111E0012807D158F8081C56
:100E000089035CBF0120BDE8F08107E058F8081CA9
:100E1000890703D40120BDE8F08100BFD8F8001095
:100E200021F003010843C8F80000FFF70BFC064659
:100E300041F28837D8F80000616800F00C00B0EB90
:100E4000810F8DD0FFF7FEFB801BB842F2D9032043
:100E5000BDE8F08140F2080043F60801C2F200004C
:100E6000C4F202010068096841F6F062C1F3822110
:100E7000C0F60002515CC8407047000040F2080014
:100E800043F60801C2F20000C4F2020100680968DA
:100E900041F6F062C1F34231C0F60002515CC84035
:100EA0007047000010B543F60404C4F20204606801
:100EB000C0F3810142F20040C0F2F400DFE801F02B
:100EC0004402081841F20020C0F27A0010BD00BFB1
:100ED000216801F03F02216823684902C3F38811A9
:100EE00016D4A1FB00010023FFF7DCF917E000BFD7
:100EF000216801F03F02216823684902C3F3881189
:100F000016D4A1FB00010023FFF7CCF917E000BFC6
:100F100041F20020C0F27A004843B0FBF2F02168B1
:100F20000222C1F3014102EB4101B0FBF1F010BD1F
:100F300041F20020C0F27A004843B0FBF2F0216891
:100F4000C1F30271B0FBF1F010BD00002DE9F041DA
:100F500082B0002800F096800446007843F6000630
:100F6000C007C4F202062BD0B06800F00C000428C1
:100F700020D0B06800F00C00082802D17068400250
:100F800018D4B06800F00C000C2802D17068400240
:100F900010D46068B0F5803F07D0B0F5A02F40F0C6
:100FA0003B81306840F480203060306840F480300D
:100FB00030603BE13068800302D56068002861D072
:100FC0002078800722D5B06810F00C0F11D0B068DF
:100FD00000F00C00082802D17068400209D5B06802
:100FE00000F00C000C2840F09F807068400200F177
:100FF0009B803068800702D5E068012842D13068C4
:10100000216920F0F80040EAC10030602078000734
:101010003CD42078400751D4A5698DB3B06800F066
:101020000C00082840F0A880012D2BD07068E169E1
:1010300000F480028A4225D1216A00F03F028A42F0
:1010400020D147F6C071626A0140B1EB821F19D10D
:10105000A26A0023CFF6FF7303EBC23200F44031E3
:101060006FF30F0291420DD1E16A00F07062B2EBB2
:10107000016F07D1216B00F0E040B0EB017F01D19F
:10108000002035E1012002B0BDE8F0816069002850
:1010900040F20000C4F247205ED00121C0F8801E5B
:1010A000FFF7D0FA054600BF706F8007B1D4FFF795
:1010B000C9FA401B0228F7D9C5E000BF306C10F018
:1010C00080580AD100200190306C40F0805030648C
:1010D000306C00F080500190019847F20007C4F294
:1010E00000073868C00511D4386840F48070386053
:1010F000FFF7A8FA054600BF3868C00506D4FFF719
:10110000A1FA401B0228F7D99DE000BFA068012882
:1011100005D0052852D1306F40F004003067306FA1
:1011200040F00100306753E0E068002860D0002004
:10113000C4F2472001210160FFF784FA054600BF91
:10114000306880073FF55BAFFFF77CFA401B022851
:101150004FF00300F4D9CBE00021C0F8801EFFF768
:1011600071FA0546706F80077FF553AFFFF76AFA93
:10117000401B0228F6D966E00027C4F2472700206A
:101180003866FFF75FFA022D05460BD13068800103
:101190005ED5FFF757FA401B02284FF00300F5D940
:1011A000A6E000BF306880017FF56AAFFFF74AFA1A
:1011B000401B02284FF00300F4D999E0316F00285A
:1011C00021F001013167316F21F00401316765D0F1
:1011D000FFF738FA054641F2883700BF306F8007C5
:1011E0006ED4FFF72FFA401BB842F7D92BE000BFAF
:1011F0000020C4F2472000210160FFF723FA0546D2
:10120000306880077FF502AFFFF71CFA401B022809
:101210004FF00300F4D96BE03168002821F48031ED
:101220003160316821F48021316053D0FFF70AFA30
:10123000054600BF306880033FF5C2AEFFF702FAF3
:10124000401B6428F6D9032002B0BDE8F08100BF3E
:1012500004F11C052FCD246B08430021CFF6FF714C
:1012600040EA821001EBC3316FF30F0140EA0560E1
:10127000084340EA0470706001203866FFF7E2F925
:10128000044600BF306880013FF5FAAEFFF7DAF997
:10129000001B02284FF00300F4D929E0FFF7D2F930
:1012A000054641F2883700BF306F800708D5FFF749
:1012B000C9F9401BB8424FF00300F5D918E000BF50
:1012C000B8F1000F7FF4A8AE306C20F0805030648D
:1012D000A2E600BFFFF7B6F90546306880037FF548
:1012E0006FAEFFF7AFF9401B64284FF00300F4D94D
:1012F00002B0BDE8F0810000411E0020B0EB116F8C
:101300001CBF012070474EF21002CEF20002516065
:101310004EF62351CEF20001F0230B7007219060AE
:1013200011607047002804BF0120704710B50446C3
:1013300090F83D0028B9002084F83C00204600F0D9
:1013400021F8242084F83D002068C16821F4005170
:10135000C160204600F08CFC2068016921F49041B6
:101360000161416921F02A014161C16841F40051E4
:10137000C16000202021206484F83D1084F83E10D4
:1013800010BD000080B586B0016844F20040C4F290
:101390000000814202D006B080BD00BF002143F6AC
:1013A00030020191C4F20202136900F5DE3043F409
:1013B00000331361136903F400330193019B01911E
:1013C000136843F001031360126802F001020192F6
:1013D000019A0C2201920222CDE9022103210491FB
:1013E0000721059101A9FFF749F806B080BD00006B
:1013F0002DE9F04381B0044690F83D0020280DD13E
:101400000F4600294FF0010000F0DD801646002A4B
:1014100000F0D98094F83C00012803D1022001B0EB
:10142000BDE8F083012084F83C004FF00009212042
:101430001D46C4F8409084F83D00FFF703F9A684E8
:10144000E684A1680646B1F5805F07D120690028CF
:101450001CBF38464F46B846074601E04FF000082B
:1014600084F83C90E18C2068002900F08B8005F125
:1014700001090AE047B317F8011B4160E18C01390B
:10148000E184E18C002900F07D8001680906F1D437
:10149000B9F1000F0AD0EDB1FFF7D4F8801BA842D4
:1014A00018D8206801680906F6D5E3E7016809063F
:1014B000E0D4016809065CBF01685FEA0161D9D424
:1014C00001680906F2D5D5E738F8021B00276FF34B
:1014D0005F21D2E7206850E8030F216820F4D07024
:1014E00041E80302BAB3206850E8030F216820F4F2
:1014F000D07041E8030272B3206850E8030F2168FE
:1015000020F4D07041E803022AB3206850E8030FAA
:10151000216820F4D07041E80302002ADAD11AE0F1
:10152000206850E8050F216820F0010041E805021D
:10153000DAB1206850E8050F216820F0010041E889
:10154000050292B1206850E8050F216820F00100E3
:1015500041E805024AB1206850E8050F216820F0F3
:10156000010041E80502002ADAD1202084F83D007C
:1015700084F83E00002084F83C00032001B0BDE860
:10158000F08300BF0168490619D4FDB1691C0DD173
:101590000168490613D4016849065CBF01685FEA27
:1015A00041610CD401684906F2D508E0FFF74AF81A
:1015B000801BA8420AD8206800684006F6D5202083
:1015C00084F83D00002001B0BDE8F083206850E8B9
:1015D000030F216820F4D07041E80302E2B32068D1
:1015E00050E8030F216820F4D07041E803029AB359
:1015F000206850E8030F216820F4D07041E803020E
:1016000052B3206850E8030F216820F4D07041E8FD
:101610000302002ADAD11FE0206850E8050F216894
:1016200020F0010041E80502002A9ED0206850E821
:10163000050F216820F0010041E80502002A3FF46F
:1016400094AF206850E8050F216820F0010041E8C0
:101650000502002A3FF489AF206850E8050F216891
:1016600020F0010041E80502002AD5D17DE7000005
:10167000FEE700002DE9F04383B004460068994678
:101680000368904643F48062026002680B9D42F456
:101690008072026042690A9ED2070F461DD1711CFA
:1016A00011D0002E00F03681FEF7CCFF401BB04277
:1016B00000F2328120684169C907F5D00DE000BF12
:1016C0004169C90709D14169C90706D14169C907FB
:1016D00004BF41695FEAC171F2D007F0FE070761FC
:1016E0004169890738D44169721C01F4806111D0C5
:1016F00049BB002E00F03A81FEF7A4FF401BB04228
:1017000000F2368120684169890725D4416949057D
:10171000F2D518E0B9B9416989071DD44169490575
:1017200011D44169890717D4416949050BD441692E
:10173000890711D44169490505D4416989070BD44A
:1017400041694905E7D5016841F4007101606FF412
:101750008061416104200CE100210291014651F8B1
:10176000142F02924A680292029A0A68120620D442
:10177000002E00F0AB80721C51D10A68520500F1B6
:10178000AD800A68120614D40A68520500F1A680DA
:101790000A6812060DD40A68520500F19F800A6893
:1017A000120606D40A68520500F198800A681206EB
:1017B000E3D5B9F1010F45D04FEA18210161014687
:1017C00051F8142F12063DD4002E00F07F80721CB9
:1017D0002AD10A68520500F181800A68120631D4C4
:1017E0000A6852057AD40A6812062BD40A68520590
:1017F00074D40A68120625D40A6852056ED40A68A1
:101800001206E6D51EE000BFFEF71CFF401BB042EB
:1018100061D82068014651F8142F1206C9D408680F
:101820004005F1D55AE000BF0868400556D4FEF7E0
:1018300009FF401BB0424ED82068014651F8142FD2
:101840001206F1D55FFA88F10161014651F8142FB3
:1018500012061AD4D6B3721C33D10A6852053DD48D
:101860000A68120611D40A68520537D40A681206AB
:101870000BD40A68520531D40A68120605D40A68E6
:1018800052052BD40A681206E7D50168002241F4FC
:101890008071016020464FF001113346009500F041
:1018A00079F8002850D02068006844E0FEF7CAFEAE
:1018B000401BB0420FD82068014651F8142F120681
:1018C000E3D408684005F1D508E000BF086840058A
:1018D00004D4FEF7B7FE202004E000BF6FF4806060
:1018E0000860042000212022216384F83D2084F830
:1018F0003E10226C1043206484F83C10206C0428B5
:1019000043D12068016841F400710160012003B0F7
:10191000BDE8F083FEF796FE00202021206384F8C6
:101920003D1084F83E00216C41F0200121642168C3
:1019300084F83C000868C00544BF4FF40070206480
:10194000032003B0BDE8F083206847F00101016186
:101950000221C0F20101204632462B4600F0C2F8B7
:10196000002818BF012003B0BDE8F083FEF76AFE2F
:10197000202000212022216384F83D2084F83E109D
:10198000226C1043206484F83C10012003B0BDE8B1
:10199000F08300002DE9F04105461446DDF818807B
:1019A00001F47F002A681E46B0F5803F8FB241D116
:1019B00050693840C01BB0FA80F04009A0427BD18A
:1019C000701C2DD0002E7BD0FEF73CFEA0EB080053
:1019D000B04277D8286840693840C01BB0FA80F020
:1019E0004009A042F0D00020BDE8F08150693840A5
:1019F000C01BB0FA80F04009A0425DD15069384068
:101A0000C01BB0FA80F04009A04255D1506938405F
:101A1000C01BB0FA80F04009A0424FF000005FD137
:101A200050693840C01BB0FA80F04009A042DDD0B8
:101A300042E000BF90693840C01BB0FA80F0400916
:101A4000A04239D1701C1FD0D6B300BFFEF7FAFDFB
:101A5000A0EB0800B04235D8286880693840C01B28
:101A6000B0FA80F04009A042F0D00020BDE8F0813B
:101A700090693840C01BB0FA80F04009A0424FF096
:101A8000000018BFBDE8F08190693840C01BB0FA73
:101A900080F04009A0420FD190693840C01BB0FAD5
:101AA00080F04009A04207D190693840C01BB0FACD
:101AB00080F04009A042DBD00020BDE8F08100BFEB
:101AC000FEF7C0FD00202021286385F83D1085F831
:101AD0003E00296C41F02001296485F83C0001207A
:101AE000BDE8F081F0B581B0044600681D46436949
:101AF0008FB203EA0701B94202D1002001B0F0BD64
:101B000041691646013201F480610FD059BB9EB382
:101B1000FEF798FD401BB04230D82068416939403B
:101B2000B942EAD041694905F2D51CE0D9B9416909
:101B30003940B942E1D04169490514D4416939407D
:101B4000B942DAD0416949050DD441693940B942F9
:101B5000D3D04169490506D441693940B942CCD056
:101B600041694905E3D5016841F4007101606FF4F2
:101B700080614161042002E0FEF764FD2020002125
:101B80002022216384F83D2084F83E10226C10430B
:101B9000206484F83C10012001B0F0BDFEE7000095
:101BA000FEE700007047000070470000FEF7FABF34
:101BB000B0B594B0002443F640000C94CDE90A443B
:101BC000CDE908440694CDE90444CDE902440194EA
:101BD000C4F202000168012241F0805101600068F6
:101BE000022500F080500190019847F20000019416
:101BF000C4F20000016862F38F310160006800F4F4
:101C000040400190019810200B900F904FF4A87065
:101C100010900420CDE9110507A807950A92CDE997
:101C20000D541395FFF792F920B1EFF3108072B6BF
:101C3000FEE700BF0F20CDE902054FF48050CDE94B
:101C4000050402A802210494FFF754F820B1EFF331
:101C5000108072B6FEE700BF14B0B0BD4EF68850DB
:101C6000CEF20000016841F470010160704700008D
:101C700010B504460068D4E902C22369016921F461
:101C8000405111430161626943EA0C01E369114368
:101C9000C268194349F20C639A431143C160416918
:101CA000A26921F4407141F20043114340F4806283
:101CB000C4F201039A42416102D1FFF7DFF801E06B
:101CC000FFF7C8F8E16963681922B1F5004FA0FB7E
:101CD00002011FD15A00DB0FFEF7E4FA48F21F5150
:101CE000C5F2EB11A0FB01235A096FF0630302FB5D
:101CF0000300322303EBC000A0FB01014FF4F87096
:101D000000EA111000EB0210C1F3421108442168EF
:101D1000886010BD9A009B0FFEF7C4FA48F21F516D
:101D2000C5F2EB11A0FB01235A096FF0630302FB1C
:101D30000300322303EB0010A0FB0101F02000EAB6
:101D4000511000EB0210C1F3431108442168886070
:101D500010BD0000FEE700008AB00024C4F20204B7
:101D6000FEF72EFFFFF724FF002643F63000CDE9F3
:101D700008660496C4F202000168002241F00401E2
:101D800001600168202701F0040104910499049680
:101D9000016841F080010160016801F08001049157
:101DA00004990496016841F001010160016801F0A5
:101DB0000101049104990496016841F00201016057
:101DC0000068202100F00200049004982046FEF7ED
:101DD00033FC4FF4005005904FF4041005ADCDE9ED
:101DE000060604F500602946FEF748FB0120CDE910
:101DF00006062046294605970896FEF73FFB40F267
:101E00007000A4F5D631C2F2000048F2A0624FF48F
:101E10008043C0F2010280E84600C0E90363C0E9E4
:101E20000566C0E90766FEF713FC28B1EFF31080E2
:101E300072B600BFFEE700BF40F2C400A4F5DE3179
:101E4000C2F200000C234FF4E13280E84600C0E902
:101E50000366C0E90536C661FFF764FA20B1EFF307
:101E6000108072B6FEE700BF40F2700440F2C40674
:101E70004FF061084FF0FF394FF0010A04AFC2F292
:101E8000000405ADC2F200062046EC21D022012359
:101E90008DF81080CDE9007ACDF80890FEF794FC1B
:101EA0009DF810008DF814002846FEF773FA82B2F0
:101EB000304629464FF0FF33FFF79AFA4FF4FA7095
:101EC000FEF7C8FAE0E7F1EE100A4FF6FF71C0F234
:101ED000C03120EA010040F04070E1EE100A704786
:101EE00000000000000000000102030406070809CA
:101EF0000000000001020304181F00080000002079
:101F00001000000000020008281F00081000002038
:101F1000000700001C020008010000001000000083
:081F20000024F40000000000A1
:04000005080001C529
:00000001FF
