:020000040800F2
:10000000A00700207D0200082926000821260008FC
:1000100025260008E10C0008DD270008000000008C
:100020000000000000000000000000003126000871
:10003000E50C0008000000002D2600083526000809
:10004000970200089702000897020008970200082C
:10005000970200089702000897020008970200081C
:10006000970200089702000897020008970200080C
:1000700097020008970200089702000897020008FC
:1000800097020008970200089702000897020008EC
:1000900097020008970200089702000897020008DC
:1000A00097020008970200089702000897020008CC
:1000B00097020008970200089702000897020008BC
:1000C00097020008970200089702000897020008AC
:1000D000970200089702000897020008970200089C
:1000E000970200089702000897020008970200088C
:1000F000970200089702000897020008970200087C
:10010000970200089702000897020008970200086B
:10011000970200089702000897020008970200085B
:10012000970200089702000897020008970200084B
:10013000970200080000000000000000970200087D
:10014000970200089702000897020008970200082B
:10015000970200089702000897020008970200081B
:10016000970200089702000897020008970200080B
:10017000970200089702000897020008000000009C
:1001800000000000970200080000000000000000CE
:10019000970200080000000000000000970200081D
:1001A00000000000000000000000000097020008AE
:1001B00097020008970200089702000897020008BB
:1001C0009702000800F002F800F049F80AA090E851
:1001D000000C82448344AAF10107DA4501D100F002
:1001E0003EF8AFF2090EBAE80F0013F0010F18BF86
:1001F000FB1A43F001031847A44B0000C44B000056
:10020000103A24BF78C878C1FAD8520724BF30C842
:1002100030C144BF04680C60704700000023002414
:1002200000250026103A28BF78C1FBD8520728BF06
:1002300030C148BF0B607047662904F04E8500202E
:1002400070471FB504F037FD00F0DAFB0400002012
:10025000002103F045FFE0601FBD10B510BD00F0A8
:10026000CCFC1146FFF7EDFF03F046F800F0EAFC86
:1002700003B4FFF7F2FF03BC00F02CFD09488047F0
:1002800009480047FEE7FEE7FEE7FEE7FEE7FEE778
:10029000FEE7FEE7FEE7FEE704480549054A064B90
:1002A00070470000E5260008C5010008A0010020F5
:1002B000A0070020A0030020A003002053EA020CA6
:1002C00000F069802DE9F04B4FF00006002B1FBFB6
:1002D000B3FA83F503FA05F424FA05F65E4012BF7B
:1002E0001643B2FA82F502FA05F4C5F120051EBFE5
:1002F00022FA05FC44EA0C04203556EA044C4FEA85
:10030000144418BF641C4FF000084FF000099042DD
:1003100071EB030C39D3002919BFB1FA81F701FA47
:1003200007F6B0FA80F700FA07F6C7F120071EBFFC
:1003300020FA07FC46EA0C062037B6FBF4FCA7EBD4
:100340000507103F07F01F0BCBF120062CFA06F62D
:100350000CFA0BFB44BFB3460026202FA4BF5E4619
:100360004FF0000B5BEA060C08BF4FF0010B19EBD6
:100370000B0948EB0608ABFB027C06FB02CC0BFB2F
:1003800003CCC01B71EB0C01C1E70B460246414692
:100390004846BDE8F08B13B5084318BF4FF0FF3057
:1003A0000146AFF30080BDE81C4070470FB41CB598
:1003B000074B06AA7B4469460090059800F003FBB2
:1003C0000020694600F012FB1CBC5DF814FB000025
:1003D0003506000070B5044685690068C10601D580
:1003E000302600E02026C00707D070BDD4E90121E7
:1003F00030469047206A401C20626D1EF6D570BDC5
:1004000070B5044685690078C00707D170BDD4E98E
:10041000012120209047206A401C20626D1EF6D5E5
:1004200070BD00002DE9F05F894604464FF0000AD8
:10043000DFF824B1FB44C0F820A02046E1688847DB
:1004400000287DD0252806D0D4E901219047206AD4
:10045000401C2062F1E700255F462046E16888479E
:100460002028064607DB312E05D2B81910F8200CDB
:1004700008B10543F1E7A80701D525F00405C4F844
:100480001CA00027C4F818A02A2E09D0304603F07B
:100490001FFE38B304EB8708303EC8F8186019E037
:1004A00059F8041B204604EB87029161E1688847F4
:1004B000012F064618D1E069002820DA25F0200532
:1004C0001DE0D8F8180000EB800006EB4000303843
:1004D000C8F818002046E1688847064603F0F8FD92
:1004E0000028EED1012F0AD02E2E08D12046E16837
:1004F00088477F1C0646022F45F02005C4DBA06913
:10050000002803DA404245F00105A061E80701D068
:1005100025F01005A6B1A6F14100192802D8203611
:1005200045F400654A463146204625604D46FFF7B2
:1005300083FE60B1012807D0ED1D25F0070000E023
:1005400007E000F1080978E705F1040975E730468E
:100550007AE7206ABDE8F09FA648000010B5431C6A
:1005600002E010F8011B71B18107FAD14FF001329E
:1005700002C88C1A8C4314EAC211F9D0C01A0A06B8
:1005800003D0C01E10BDC01A10BD0A0401D0801EC9
:1005900010BD0902FCD0401E10BD70477047704767
:1005A0002DE9FF4F0C461E464FF0FF378BB0D2E9C6
:1005B0000001DDF860800A908A46C1F30A5505B94A
:1005C0003D46002108464FF00000BAF1000F00F44C
:1005D000400005DA00EB80004FF4400101EA5000D2
:1005E0004FEA9059B9F1010F00DDB9460A9850EA77
:1005F0004A000ED044F61050A5F2FF3545432F14A3
:10060000B8F1000F1ED07542291E1EDDC9F100028F
:100610001CE0B8F1010F4FF0000001D0302103E0E1
:10062000F24305E02154401CB042FBDB304600227F
:10063000002121540B99C1F80880C1E900200FB0B6
:10064000BDE8F08FBD1B6D1CDEE74A4600DA69424B
:1006500006A800F05FFA06AB93E8070003AB83E857
:10066000070050460A9903F052F98DE80700A0F5FB
:1006700000501F3800900398002D0ADD42F21F0140
:100680004A460844002303A90390684603F0BCFBD4
:1006900009E0A0F500504A461F38002303A9039043
:1006A000684603F0C6FB8DE807000004000C03D089
:1006B0004FF0FF30410800E01046B8F1000F03D0C2
:1006C0000022009215461EE0751E05D400F09CF92C
:1006D000303262556D1EF9D5B3460122084302D06F
:1006E00000227F1C04E02078302801D100227F1EE8
:1006F000002A099784D01DE0112D07DA00F084F953
:10070000303262556D1C50EA0102F5D1084302D027
:100710000098C8B10EE00021681E05E0235C625C11
:1007200063542254401E491C8142F7DBAB46A81B90
:10073000401E0990002004F80B000B98099AC0F89D
:100740000880C0E9002B7AE711264FF0000857E730
:100750002DE9F04F88460446D21D22F0070191B0E2
:10076000D1E90001CDE90A0103F09AFC02460B9899
:10077000C00F01D02D2007E02068810701D52B2074
:1007800002E0202101EAC000032A099001D0072AD3
:1007900005DB03464146204600F07CF90BE120785A
:1007A000800601D5E06900E00620B8F1650F8146BA
:1007B00006D0B8F1660F18D0B8F1670F70D131E0EC
:1007C0000020B9F1110F009001DB112301E009F1C4
:1007D00001030AAA01A90CA8FFF7E2FEDDE90C70EB
:1007E000002609F10105834647E001204B460090B1
:1007F0004FF000470AAA01A90CA8FFF7D1FEDDE9D6
:100800000DB00C995D46002610B909F101000D18D4
:10081000B9EB050003D4C0F1FF3609F10105A5EBE2
:1008200009002BE0B9F1010F01DA4FF001090020B6
:10083000B9F1110F0090484601DD112300E0034695
:100840000AAA01A90CA8FFF7ABFEDDE90C704D4622
:1008500000268346207800070AD4AB4500DA5D46BF
:1008600001A8012D04DD411911F8011C302907D020
:100870004F4502DA17F1040F04DA012082460FE037
:100880006D1EEEE7002F02DCED1B3E4403E0781CFA
:10089000A84200DD7D1CB81B00F1010A4FF00047A3
:1008A0002078000703D4AA4501DB4FF0FF3A00216E
:1008B000B7F1004F0DF143088DF8431024D002200A
:1008C0002B23002F01DA7F422D230A21021EA0F1E3
:1008D000010000DC5FB197FBF1FC97FBF1F201FB3B
:1008E0001C7C17460CF1300C08F801CDEEE7A8F19E
:1008F000010003702188090501D5452100E065212B
:10090000A0F1010800F8011C09980FA9A1EB080744
:10091000FF1D00B10120411901EBEA70A1693844C3
:10092000081A401EA0612078C00602D42046FFF7B6
:1009300051FD099828B1D4E901219047206A401C53
:1009400020622078C00622D52046FFF743FD1EE036
:10095000002E04DBB34502DD01A8805D00E03020FD
:10096000D4E901219047206A401C2062761CAAF13C
:1009700001005FEA000A0AD100F042F8C06801688D
:10098000405CD4E901219047206A401C2062281E67
:10099000A5F10105DCDC07E0D4E9012118F8010B21
:1009A0009047206A401C2062381EA7F10107F3DC43
:1009B0002046FFF725FD032011B041E601694A1CDE
:1009C00002610878704700B58FB0CDE90131002190
:1009D000059105497944CDE9031011466846FFF7B2
:1009E00021FD0FB000BD0000E5FFFFFF0A6802F81F
:1009F000010B0A607047000000487047100000209B
:100A0000004870473000002030B5B0F10A0271F1A3
:100A100000034FEA900E4EEA817EB0EB0E0061EBD0
:100A200091014FEA101E4EEA017E10EB0E0041EBE1
:100A300011114FEA102E4EEA016E10EB0E0041EB41
:100A400011214FEA104E4EEA014E10EB0E0041EB21
:100A50001141401841F100014FEAD00040EA4170D5
:100A60004FEAD1014FEA810444EA907410EB80050B
:100A700044EB01046D1944EB0404521BA3414FF0F5
:100A8000000348BF0A3200D530BD401C41F10001CF
:100A900030BD00002DE9F0411F46044603260168E1
:100AA000072A01F4006004DB08B116A505E016A5CD
:100AB00003E008B115A500E015A521F010002060A5
:100AC000A069C01EA0610FB1401EA0612046FFF7C3
:100AD00081FC4FB1D4E9012138469047206A401C7F
:100AE0002062C01C206206E0206AFAE7D4E90121F6
:100AF00015F8010B9047761EF8D22046FFF780FCD0
:100B0000BDE8F0814E414E006E616E00494E4600D8
:100B1000696E66002DE9F047814616468AB0354871
:100B200078440DC88DE80D0032487844801C03AC31
:100B30000DC884E80D0041F69B300844372190FB36
:100B4000F1F290FBF1F5A5F1800501FB12041B3CCD
:100B500002D56442012000E00020DFF898A0804622
:100B60000027FA44AAF1BE0A0EE0E0070AD0324696
:100B7000684607EB470101230AEB810103F059F9AD
:100B80008DE8070064107F1C002CEED1194F7F44C4
:100B9000AE3F19E0E80715D007EB04100DF1180A75
:100BA00090E80E008AE80E00C068F04201D1981962
:100BB00008903246012306A903A803F03AF903ABD3
:100BC00083E807006D10641C002DE3D14FF0010392
:100BD00032466946B8F1000F03A802D003F014F9B9
:100BE00001E003F026F9C9E90001C9F808200AB0BC
:100BF000BDE8F0874842000070477546FFF7FCFEED
:100C0000AE4605006946534620F00700854618B0F9
:100C100020B5FFF741FBBDE820404FF000064FF044
:100C200000074FF000084FF0000BAC46ACE8C009DD
:100C3000ACE8C009ACE8C009ACE8C00921F0070184
:100C40008D46704710B50446AFF300802046BDE8DE
:100C50001040FFF70DBB000030B44FF0013C50F8DE
:100C6000042B51F8043BCCFA52F4D51A20D1FCB92C
:100C700050F8042B51F8043BCCFA52F4D51A17D192
:100C8000B4B950F8042B51F8043BCCFA52F4D51AFD
:100C90000ED16CB950F8042B51F8043BCCFA52F445
:100CA000D51A05D1002CDAD030BC4FF000007047C7
:100CB00029BAB1FA81F111F01801D1F12000844074
:100CC000F2D1CA40CB4012F0FF0213F0FF0330BC58
:100CD000D01A704701491820ABBEFEE7260002007B
:100CE000FEE7000070470000B0B5044600F0FCF8D5
:100CF000054640F20000C2F200000078611C18BFF7
:100D0000044400BF00F0F0F8401BA042FAD3B0BD8D
:100D10002DE9F04F82B000F13E4241F6000502F1AC
:100D2000FF77C4F2020507224FEAB726A84208BFA0
:100D30000622062E38BF4FEAB7224FF0010A0024E0
:100D400000274FF00008009208E000BF023708F1CA
:100D50000108202F04F1040400F0B4800E680AFAA0
:100D600008F916EA090FF1D0D1F804A00AF0030B34
:100D7000ABF10106012E17D80322866802FA07FE9E
:100D8000CA6826EA0E06BA40324382604268CAF355
:100D9000001522EA090205FA08F54FEA480C6FEA45
:100DA0000E062A4342600BE00322BA40D643BBF151
:100DB000030FBC4604D1BC464FF0030B22E000BF3A
:100DC000C2688D68324005FA0CF52A43BBF1020F68
:100DD000C26017D16FF0030202EA5802024404F025
:100DE0001C030F25D2F820E005FA03FA0D692EEA5C
:100DF0000A0E05FA03F343EA0E031362D1F804A0C6
:100E00000AF0030B02680BFA0CF332401A431AF48F
:100E1000403F4FF0010A026098D0002243F644039D
:100E20000192C4F202031A6843F6004E42F4804273
:100E30001A601A68C4F2010E02F480420192019A0B
:100E400028F003024FF6084C7244CFF6FF7C52F8AC
:100E50000C3004F00C060F25B540AB43009D05FA9D
:100E600006F6334342F80C30DEF808204B6842EABD
:100E7000090643F60C4CDD0258BF22EA0906CEF8FB
:100E80000860C4F2010CDCF800209D0242EA090669
:100E900058BF22EA0906CCF80060DEF804209D0362
:100EA00042EA090658BF22EA0906CEF80460DEF8D5
:100EB0000020DB0342EA090658BF22EA0906CEF801
:100EC000006043E702B0BDE8F08F0000426902EA2B
:100ED0000103914341EA034181617047002A08BF41
:100EE000090481617047000040F29810C2F20000CE
:100EF0000068704770B5B8B3044690F83D0028B953
:100F0000002084F83C00204600F0EEFD242084F808
:100F10003D002068016821F001010160016841F491
:100F200000410160016821F40041016000F06AFFA6
:100F300048F28041C0F21E0140F60013D4F804E0EC
:100F400088424FF00001C0F23D0348F2A16C4FF01F
:100F5000000238BF01219842C0F2010C38BF0122C3
:100F6000E64538BF0A460AB1012070BD4DF68361DF
:100F7000C4F21B31A0FB01122168950C4B684FF4A1
:100F8000967623F03F0343EA9243754344F6D356E3
:100F90004B60C1F262060B6AA5FB0656B50923F049
:100FA0003F03E64538BF950C6A1C1A430A62CA69BA
:100FB00048F2A0664CF6FF73C0F20106B64522EA7D
:100FC00003020BD801384FEA4E03B0FBF3F00130B7
:100FD0006FF31F30042898BF04201EE0A368013877
:100FE00063B119230EFB03F3B0FBF3F001306FF391
:100FF0001F3078B100F5804008E000BF0EEB4E03D3
:10100000B0FBF3F001306FF31F3028B100F5004062
:1010100003E000BF012000E001201043C861086820
:10102000D4E9072320F0C000104318430860886803
:1010300048F2FF3204F10C0690434CCE18431043A3
:10104000A5698860C86820F0FF0030432843C86065
:10105000086840F00100086000202021206484F826
:101060003D10206384F83E0070BD00002DE9F04182
:1010700082B01F46164688460446FFF735FF94F8AF
:101080003D1020291CD1054620688169890713D5A8
:10109000FFF72AFF401B1928F6D9002020212063E2
:1010A00084F83D1084F83E00216C41F02001216459
:1010B00084F83C0004E000BF94F83C10012903D1FF
:1010C000022002B0BDE8F081012184F83C100168E3
:1010D000C90703D1016841F001010160016821F4F1
:1010E00000610160222184F83D10102184F83E1037
:1010F0000021216466626785618D21850021CFF61C
:10110000FF71E162E16A026811F5803F42F480629A
:10111000026018BF012919D1016841F48071016092
:101120004169089EC90724D1711C18D0002E00F017
:10113000CB8000BFFFF7D8FE401BB04200F2C68054
:1011400020684169C907F5D013E000BF0829E3D042
:10115000216B1129E0D0E3E74169C90709D1416951
:10116000C90706D14169C90704BF41695FEAC17176
:10117000F2D02169B1F5804F08D148F00101C9B220
:1011800001614169890740F1CC8003E1062101EA50
:10119000D81707F1F00101614169090738D44169A5
:1011A000721C01F4806113D0002940F0EA80002E07
:1011B00000F01082FFF798FE401BB04200F20C8254
:1011C00020684169090723D441694905F2D5D8E06F
:1011D000002940F0D6804169090719D441694905C1
:1011E00000F1CF804169090712D44169490500F136
:1011F000C880416909070BD44169490500F1C180E4
:101200004169090704D441694905E4D5B9E000BF43
:101210005FFA88F101614169890739D44169721C1B
:1012200001F4806114D0002940F0AB80002E00F062
:10123000D181FFF759FE401BB04200F2CD812068FA
:101240004169890724D441694905F2D599E000BF75
:10125000002940F096804169890719D44169490500
:1012600000F18F804169890712D44169490500F175
:101270008880416989070BD44169490500F1818063
:101280004169890704D441694905E4D579E000BF83
:1012900000210191416901918169019101990168E0
:1012A00041F4807101604169C90734D1711C28D0B3
:1012B00056B1FFF719FE401BB04207D820684169BC
:1012C000C907F6D027E000BFFFF70EFE002020215F
:1012D000206384F83D1084F83E00216C41F0200129
:1012E0002164216884F83C000868C00544BF4FF4BD
:1012F00000702064012002B0BDE8F0814169C90797
:1013000009D14169C90706D14169C90704BF4169CB
:101310005FEAC171F2D047F0F101016141698907CB
:1013200038D44169721C01F4806111D049BB002E90
:1013300000F05081FFF7D8FD401BB04200F24C8115
:1013400020684169890725D441694905F2D518E02B
:10135000B9B9416989071DD44169490511D4416969
:10136000890717D4416949050BD44169890711D40C
:101370004169490505D4416989070BD4416949058B
:10138000E7D5016841F4007101606FF4806141614B
:10139000042022E1218D99B1022927D001292DD1E4
:1013A000026822F480620260002201924269019286
:1013B00082690192019A026842F40072026028E098
:1013C00000210191416901918169019101990168AF
:1013D00041F400710160202084F83D00002084F871
:1013E0003E0084F83C0002B0BDE8F081026822F4BF
:1013F00080620260026842F4006202E0026842F425
:10140000806202600022019242690192806901902B
:10141000019888B2032817D802283FD0012851D15B
:10142000002E00F099802068014651F8142F5206D2
:1014300000F196800868C00600F1F280FFF754FDC5
:10144000401BB042EFD9E0E086B100BF2068014602
:1014500051F8142F52060ED40868C00600F1E0803F
:10146000FFF742FD401BB042F0D9CEE02068416951
:10147000490640F1C3800069616A0870606A218D85
:1014800001300139606221852268638D013B6385EB
:1014900053695B0770D51169017064E02068416988
:1014A000490745D4711C6BD0002E00F0CD80FFF7AA
:1014B0001BFD401BB04200F2C9802068416949070A
:1014C000F5D535E02068416949070ED4711C65D017
:1014D000002E00F0B980FFF707FD401BB04200F27C
:1014E000B580206841694907F5D5016821F480611C
:1014F00001600069616A0870606A218D01300139FC
:10150000606221852068618D0139618541694907E3
:101510000ED4711C50D0002E00F09680FFF7E4FC32
:10152000401BB04200F29280206841694907F5D51E
:10153000016841F4007101600069616A0870606AC5
:101540002268411C6162218D01392185618D01393B
:1015500061851169417006E02068416949064DD5F1
:101560000069616A0870606A218D0130013960622A
:101570002185608D0138608508047FF44AAF2AE731
:1015800041694907D4D4416949075CBF41695FEAB1
:101590004171CDD441694907F2D5C9E7416949078D
:1015A000A3D4416949075CBF41695FEA41719CD49A
:1015B00041694907F2D598E741694907B8D44169BB
:1015C00049075CBF41695FEA4171B1D4416949078C
:1015D000F2D5ADE7FFF788FC20200021202221630F
:1015E00084F83D2084F83E10226C1043206484F877
:1015F0003C10012002B0BDE8F08100BF50F8141F7C
:10160000C90601460CD4FFF76FFC0020202120639F
:1016100084F83D1084F83E00206C40F020000AE081
:101620006FF01000086000202021206384F83D1036
:1016300084F83E00206C2064002084F83C000120E7
:1016400002B0BDE8F08100BFFFF74EFC0020202172
:10165000206384F83D1084F83E00216C41F02001A5
:10166000216484F83C00012002B0BDE8F081000054
:101670002DE9F04381B01F46164688460446FFF721
:1016800033FC94F83D10202920D10546206881695B
:10169000890717D5FFF728FC401B1928F6D9002029
:1016A0002021206384F83D1084F83E00216C02263E
:1016B00041F02001216484F83C00304601B0BDE8CF
:1016C000F08300BF94F83C10012905D10226304672
:1016D00001B0BDE8F08300BF012184F83C1001682F
:1016E000C90703D1016841F001010160016821F4DB
:1016F00000610160212184F83D10102184F83E1022
:101700000021216466626785618D21850021CFF605
:10171000FF71E162E16A11F5803F18BF012919D11B
:10172000016841F4807101604169DDF82090C907CA
:1017300023D119F1010116D0B9F1000F46D000BF35
:10174000FFF7D2FB401B484542D820684169C907D2
:10175000F6D012E00829E3D0216B1229E0D0E3E7AC
:101760004169C90709D14169C90706D14169C9075A
:1017700004BF41695FEAC171F2D02169B1F5804FC0
:1017800002D1FE2161E000BF062101EAD811F0314B
:1017900001614169090757D4416919F1010201F456
:1017A00080612FD0002946D1B9F1000F00F04281AD
:1017B000FFF79AFB401B484500F23E8120684169D3
:1017C000090741D441694905F2D534E0FFF78CFBA4
:1017D00000202021206384F83D1084F83E00216C15
:1017E000012641F020012164216884F83C0008684A
:1017F000C00544BF4FF400702064304601B0BDE81E
:10180000F08300BFB9B9416909071DD44169490591
:1018100011D44169090717D4416949050BD44169BD
:10182000090711D44169490505D4416909070BD459
:1018300041694905E7D5016841F4007101606FF421
:10184000806141610420F8E0FF2101EA08010161A3
:10185000416989073AD4416919F1010201F48061B3
:1018600012D051BBB9F1000F00F0E080FFF73CFB54
:10187000401B484500F2DC8020684169890725D477
:1018800041694905F2D518E0B9B9416989071DD404
:101890004169490511D44169890717D4416949054E
:1018A0000BD44169890711D44169490505D44169BF
:1018B00089070BD441694905E7D5016841F40071F6
:1018C00001606FF4806141610420B6E0002600965B
:1018D00041690091816900910099218D002900F0F2
:1018E000958009F10108014651F8142F120635D4EC
:1018F000B8F1000F16D0B9F1000F00F0AF8000BFB3
:101900000868400500F1B280FFF7EEFA401B484539
:1019100000F2A9802068014651F8142F1206EFD575
:101920001CE000BF0A68520500F1A0800A68120698
:1019300014D40A68520500F199800A6812060DD481
:101940000A68520500F192800A68120606D40A68F5
:10195000520500F18B800A681206E3D5636A1946C6
:1019600011F8012B02616162618D01396185278D5A
:101970000146A7F1010CA4F828C051F8142F520712
:101980000DD55FEA0C420AD05A78A7F1020C026129
:101990009A1C6262628D013A6285A4F828C00A68C6
:1019A00052072FD4B8F1000F14D0B9F1000F7BD03B
:1019B0000868400500F18080FFF796FA401B484513
:1019C00077D82068014651F8142F5207F0D5B4F8A3
:1019D00028C017E00A6852056ED40A68520711D46D
:1019E0000A68520568D40A6852070BD40A6852057F
:1019F00062D40A68520705D40A6852055CD40A68A2
:101A00005207E7D55FEA0C417FF46DAF016841F4FE
:101A100000710160202084F83D0084F83E6084F865
:101A20003C60304601B0BDE8F08300BFFFF75CFAD0
:101A3000202002E0FFF758FA202000212022216315
:101A400084F83D2084F83E10226C01261043206467
:101A500084F83C10304601B0BDE8F08308684005CA
:101A600004D4FFF741FA202004E000BF6FF4806047
:101A70000860042000212022216384F83D2084F89E
:101A80003E10226C1043206484F83C10206C042823
:101A900025D120680126016841F4007101603046BB
:101AA00001B0BDE8F08300BF0868400504D4FFF72B
:101AB0001BFA202004E000BF6FF48060086004205F
:101AC00000212022216384F83D2084F83E10226CFE
:101AD0001043206484F83C10206C0428D9D00126DF
:101AE000304601B0BDE8F083B0B586B0016845F27C
:101AF0000040C4F20000814202D006B0B0BD00BF79
:101B0000002443F630050194C4F20205296800F56B
:101B1000D83041F002012960296801F002010191E9
:101B200001994FF4107101911221CDE902140321A2
:101B300004910421059101A9FFF7EAF800942869AE
:101B400040F400102861286900F40010009000980B
:101B500006B0B0BD40F2000040F29811C2F20000A1
:101B6000C2F2000100780A68104408607047000063
:101B700080B543F60040C4F20200016841F40071F0
:101B80000160016841F480610160016841F4807185
:101B90000160032000F076F8002000F005F800F066
:101BA00027F8002080BD000070B540F20006C2F2A8
:101BB000000640F208013278C2F200014FF47A7355
:101BC0000968B3FBF2F20446B1FBF2F1084600F0FB
:101BD0006BFB0F2C4FF0010508D838B94FF0FF30E0
:101BE00021460022002500F021F87460284670BDCF
:101BF00082B0002043F640010190C4F202014A681D
:101C000042F480424A604A6802F480420192019A9A
:101C10000090086840F080500860086800F080502C
:101C200000900098072002B000F02CB810B54EF6D6
:101C30000C5CCEF2000CDCF80030C3F3022E8EF008
:101C40000704042C28BF0424BEF103034FF0FF3E19
:101C50000EFA04F438BF0023A14399400EFA03F3AF
:101C60009A43114300F00F02043A624409010C3216
:101C700000F16043B0F1FF3FC8BF03F5644211704B
:101C800010BD00004EF60C51CEF200010A684FF66E
:101C9000FF031A4060F30A2242F0806040F0FD70BA
:101CA000086070472DE9F041002800F08B8043F672
:101CB0000808C4F202080446D8F8F8030D4600F0FC
:101CC0000F00884207D288F8F853D8F8F80300F0DC
:101CD0000F00A84276D12068810717D5410705D5A6
:101CE000D8F8001041F4E051C8F80010010705D5FC
:101CF000D8F8001041F46041C8F80010D8F800107E
:101D0000A26821F0F0011143C8F80010C0073FD1CC
:101D1000D8F8F80300F00F00A84207D988F8F85364
:101D2000D8F8F80300F00F00A8424BD12068410713
:101D300007D5D8F80010E26821F4E0511143C8F843
:101D40000010000708D5D8F80000216920F4604091
:101D500040EAC100C8F8000000F07CF8D8F8001094
:101D600044F68452C1F30311C0F60002515C40F204
:101D7000080220FA01F140F20400C2F200000068FB
:101D8000C2F200021160FFF70FFF0020BDE8F081F2
:101D90006068811E022907D258F8081C89015CBFBF
:101DA0000120BDE8F08111E0012807D158F8081C96
:101DB00089035CBF0120BDE8F08107E058F8081CEA
:101DC000890703D40120BDE8F08100BFD8F80010D6
:101DD00021F003010843C8F80000FFF785F8064624
:101DE00041F28837D8F80000616800F00C00B0EBD1
:101DF000810F8DD0FFF778F8801BB842F2D903200D
:101E0000BDE8F08140F2080043F60801C2F200008C
:101E1000C4F202010068096844F69452C1F38221B9
:101E2000C0F60002515CC8407047000040F2080054
:101E300043F60801C2F20000C4F20201006809681A
:101E400044F69452C1F34231C0F60002515CC840DE
:101E50007047000010B543F60404C4F20204606841
:101E6000C0F3810142F20040C0F2F400DFE801F06B
:101E70004402081841F20020C0F27A0010BD00BFF1
:101E8000216801F03F02216823684902C3F38811E9
:101E900016D4A1FB00010023FEF710FA17E000BFE3
:101EA000216801F03F02216823684902C3F38811C9
:101EB00016D4A1FB00010023FEF700FA17E000BFD3
:101EC00041F20020C0F27A004843B0FBF2F02168F2
:101ED0000222C1F3014102EB4101B0FBF1F010BD60
:101EE00041F20020C0F27A004843B0FBF2F02168D2
:101EF000C1F30271B0FBF1F010BD00002DE9F0411B
:101F000082B0002800F096800446007843F6000670
:101F1000C007C4F202062BD0B06800F00C00042801
:101F200020D0B06800F00C00082802D17068400290
:101F300018D4B06800F00C000C2802D17068400280
:101F400010D46068B0F5803F07D0B0F5A02F40F006
:101F50003B81306840F480203060306840F480304D
:101F600030603BE13068800302D56068002861D0B2
:101F70002078800722D5B06810F00C0F11D0B0681F
:101F800000F00C00082802D17068400209D5B06842
:101F900000F00C000C2840F09F807068400200F1B7
:101FA0009B803068800702D5E068012842D1306804
:101FB000216920F0F80040EAC10030602078000775
:101FC0003CD42078400751D4A5698DB3B06800F0A7
:101FD0000C00082840F0A880012D2BD07068E16922
:101FE00000F480028A4225D1216A00F03F028A4231
:101FF00020D147F6C071626A0140B1EB821F19D14E
:10200000A26A0023CFF6FF7303EBC23200F4403123
:102010006FF30F0291420DD1E16A00F07062B2EBF2
:10202000016F07D1216B00F0E040B0EB017F01D1DF
:10203000002035E1012002B0BDE8F0816069002890
:1020400040F20000C4F247205ED00121C0F8801E9B
:10205000FEF74AFF054600BF706F8007B1D4FEF758
:1020600043FF401B0228F7D9C5E000BF306C10F0D9
:1020700080580AD100200190306C40F080503064CC
:10208000306C00F080500190019847F20007C4F2D4
:1020900000073868C00511D4386840F48070386093
:1020A000FEF722FF054600BF3868C00506D4FEF7DC
:1020B0001BFF401B0228F7D99DE000BFA068012844
:1020C00005D0052852D1306F40F004003067306FE2
:1020D00040F00100306753E0E068002860D0002045
:1020E000C4F2472001210160FEF7FEFE054600BF55
:1020F000306880073FF55BAFFEF7F6FE401B022815
:102100004FF00300F4D9CBE00021C0F8801EFEF7A9
:10211000EBFE0546706F80077FF553AFFEF7E4FED8
:10212000401B0228F6D966E00027C4F247270020AA
:102130003866FEF7D9FE022D05460BD130688001C6
:102140005ED5FEF7D1FE401B02284FF00300F5D903
:10215000A6E000BF306880017FF56AAFFEF7C4FEDD
:10216000401B02284FF00300F4D999E0316F00289A
:1021700021F001013167316F21F00401316765D031
:10218000FEF7B2FE054641F2883700BF306F800788
:102190006ED4FEF7A9FE401BB842F7D92BE000BF72
:1021A0000020C4F2472000210160FEF79DFE054695
:1021B000306880077FF502AFFEF796FE401B0228CD
:1021C0004FF00300F4D96BE03168002821F480312E
:1021D0003160316821F48021316053D0FEF784FEF4
:1021E000054600BF306880033FF5C2AEFEF77CFEB7
:1021F000401B6428F6D9032002B0BDE8F08100BF7F
:1022000004F11C052FCD246B08430021CFF6FF718C
:1022100040EA821001EBC3316FF30F0140EA056021
:10222000084340EA0470706001203866FEF75CFEE7
:10223000044600BF306880013FF5FAAEFEF754FE59
:10224000001B02284FF00300F4D929E0FEF74CFEF2
:10225000054641F2883700BF306F800708D5FEF78A
:1022600043FE401BB8424FF00300F5D918E000BF11
:10227000B8F1000F7FF4A8AE306C20F080503064CD
:10228000A2E600BFFEF730FE0546306880037FF50A
:102290006FAEFEF729FE401B64284FF00300F4D90F
:1022A00002B0BDE8F0810000411E0020B0EB116FCC
:1022B0001CBF012070474EF21002CEF200025160A6
:1022C0004EF62351CEF20001F0230B7007219060EF
:1022D00011607047002804BF0120704710B5044604
:1022E00090F83D0028B9002084F83C00204600F01A
:1022F00021F8242084F83D002068C16821F40051B1
:10230000C160204600F0F8F92068016921F490418D
:102310000161416921F02A014161C16841F4005124
:10232000C16000202021206484F83D1084F83E1014
:1023300010BD000080B586B0016844F20040C4F2D0
:102340000000814202D006B080BD00BF002143F6EC
:1023500030020191C4F20202136900F5DE3043F449
:1023600000331361136903F400330193019B01915E
:10237000136843F001031360126802F00102019236
:10238000019A0C2201920222CDE90221032104913B
:102390000721059101A9FEF7BBFC06B080BD000036
:1023A0002DE9F04381B0044690F83D0020280DD17E
:1023B0000F4600294FF0010000F0DD801646002A8C
:1023C00000F0D98094F83C00012803D1022001B02C
:1023D000BDE8F083012084F83C004FF00009212083
:1023E0001D46C4F8409084F83D00FEF77DFDA684AC
:1023F000E684A1680646B1F5805F07D12069002810
:102400001CBF38464F46B846074601E04FF000086B
:1024100084F83C90E18C2068002900F08B8005F165
:1024200001090AE047B317F8011B4160E18C01394B
:10243000E184E18C002900F07D8001680906F1D477
:10244000B9F1000F0AD0EDB1FEF74EFD801BA84296
:1024500018D8206801680906F6D5E3E7016809067F
:10246000E0D4016809065CBF01685FEA0161D9D464
:1024700001680906F2D5D5E738F8021B00276FF38B
:102480005F21D2E7206850E8030F216820F4D07064
:1024900041E80302BAB3206850E8030F216820F432
:1024A000D07041E8030272B3206850E8030F21683E
:1024B00020F4D07041E803022AB3206850E8030FEB
:1024C000216820F4D07041E80302002ADAD11AE032
:1024D000206850E8050F216820F0010041E805025E
:1024E000DAB1206850E8050F216820F0010041E8CA
:1024F000050292B1206850E8050F216820F0010024
:1025000041E805024AB1206850E8050F216820F033
:10251000010041E80502002ADAD1202084F83D00BC
:1025200084F83E00002084F83C00032001B0BDE8A0
:10253000F08300BF0168490619D4FDB1691C0DD1B3
:102540000168490613D4016849065CBF01685FEA67
:1025500041610CD401684906F2D508E0FEF7C4FCDD
:10256000801BA8420AD8206800684006F6D52020C3
:1025700084F83D00002001B0BDE8F083206850E8F9
:10258000030F216820F4D07041E80302E2B3206811
:1025900050E8030F216820F4D07041E803029AB399
:1025A000206850E8030F216820F4D07041E803024E
:1025B00052B3206850E8030F216820F4D07041E83E
:1025C0000302002ADAD11FE0206850E8050F2168D5
:1025D00020F0010041E80502002A9ED0206850E862
:1025E000050F216820F0010041E80502002A3FF4B0
:1025F00094AF206850E8050F216820F0010041E801
:102600000502002A3FF489AF206850E8050F2168D1
:1026100020F0010041E80502002AD5D17DE7000045
:10262000FEE70000FEE70000FEE700007047000044
:1026300070470000FFF78EBAB0B594B0002443F69F
:1026400040000C94CDE90A44CDE908440694CDE954
:102650000444CDE902440194C4F20200016801225D
:1026600041F0805101600068022500F08050019027
:10267000019847F200000194C4F20000016862F37F
:102680008F310160006800F44040019001981020F3
:102690000B900F904FF4A87010900420CDE9110515
:1026A00007A807950A92CDE90D541395FFF726FC6C
:1026B00020B1EFF3108072B6FEE700BF0F20CDE926
:1026C00002054FF48050CDE9050402A802210494CC
:1026D000FFF7E8FA20B1EFF3108072B6FEE700BF13
:1026E00014B0B0BD4EF68850CEF20000016841F43F
:1026F000700101607047000010B504460068D4E91D
:1027000002C22369016921F44051114301616269E8
:1027100043EA0C01E3691143C268194349F20C63AF
:102720009A431143C1604169A26921F4407141F2A9
:102730000043114340F48062C4F201039A424161B4
:1027400002D1FFF773FB01E0FFF75CFBE16963680F
:102750001922B1F5004FA0FB02011FD15A00DB0F77
:10276000FDF7ACFD48F21F51C5F2EB11A0FB0123B0
:102770005A096FF0630302FB0300322303EBC0002E
:10278000A0FB01014FF4F87000EA111000EB0210F9
:10279000C1F3421108442168886010BD9A009B0F64
:1027A000FDF78CFD48F21F51C5F2EB11A0FB012390
:1027B0005A096FF0630302FB0300322303EB00109E
:1027C000A0FB0101F02000EA511000EB0210C1F360
:1027D000431108442168886010BD0000FEE7000036
:1027E0002DE9F04F81B02DED068B8AB0044600290B
:1027F0004FF0FF0000F0FD821646002A00F0F9823B
:102800009A46002B00F0F5820F4600206107C6E9CA
:102810000000C6E90200306170610996CDE9074702
:1028200000F08C80786801F033FF9FEDED0B83465C
:1028300053EC102B0F4601F0B7FF0546BAF8000025
:102840000C4601F025FF9FEDE80B064653EC102BDC
:10285000894601F0A9FF02460B462846214601F0B1
:1028600087FC0446BAF90200BAF904800D4601F06B
:10287000F8FE02460B462046294601F095FF9FEDE3
:10288000DC0B06900C4653EC102B5846394601F0F1
:102890008BFF9FEDD90B05460F4653EC102B3046AE
:1028A000494601F081FF02460B462846394601F0B1
:1028B0005FFC02460B4601F077FF054640460E4698
:1028C00001F0CFFE02460B462846314601F06CFF70
:1028D000024606980B46214601F04AFC04460D4686
:1028E00001F090FE9FEDC60BCAF8240053EC102BAC
:1028F0002046294601F0F0FC9FEDC39B044653ECB3
:10290000192B0D4641EC180B02F088F988B99FEDA0
:10291000C0AB204653EC1A2B294602F078F9B0EEF2
:10292000489AF0EE689A002804BFB0EE4A9AF0EE9A
:102930006A9A099EDDE9074786ED029BE00700F0F1
:102940004A81DAF8240001F08CFE9FEDB30B53ECC2
:10295000102B01F029FF9FEDB20B53EC102B01F06F
:1029600007FCD3468046BBF90A00BAF908A089469D
:1029700001F077FE02460B464046494601F014FF3F
:1029800002460B464046494601F00EFF9FEDA60B5E
:1029900055EC106B32462B4601F006FF07465046B9
:1029A0000C46DA4601F05DFE42464B4601F0FCFE65
:1029B0003A46234601F0DCFB32462B4601F0F4FE9A
:1029C0009FED9B0B56EC107B3A46334601F0ECFE34
:1029D0009FED990B53EC102B01F0CAFB0446BBF89A
:1029E00006000D4601F054FE02460B4620462946DD
:1029F00001F0DAFE9FED920B044653EC102B0D46CE
:102A000002F005F9002840F0DF80BAF90C00BBF9AC
:102A100012100595BAF90E50BBF910A0069101F0FD
:102A200020FECDE90110284601F01BFE02460B46B0
:102A30004046494601F0B8FE054600960E4640461F
:102A4000494642464B4601F0AFFEB946074650465E
:102A500003940C46DA4601F004FE02460B46384663
:102A6000214601F0A1FEDDF800B04A465B4601F0C8
:102A70009BFE04460F46284631462A46334601F05F
:102A800077FB22463B4601F073FB9FEDE30B53ECD3
:102A9000102B01F089FE9FEDE20B04460D46DDE9A7
:102AA000011053EC102B01F07FFE22462B4601F063
:102AB0005FFB089F804638680D4601F0E9FD9FEDF9
:102AC000DA0B02460B4651EC100B01F06BFF9FED49
:102AD000D80B06460C4653EC102B4046294601F015
:102AE00063FE02460B463046214601F041FB9FED56
:102AF000D20B53EC102B01F057FE039A059B01F00B
:102B0000EBFB8046BAF916000C4601F0AAFD02461E
:102B10000B464046214601F047FE02460B46404622
:102B2000214601F041FE9FEDC60B53EC102B01F046
:102B30003BFE0546BAF914000E4601F092FD02462E
:102B40000B464046214601F02FFE4A465B4601F007
:102B50002BFE2A46334601F00BFB054606980E462F
:102B600001F07FFD02460B462846314601F000FB8E
:102B70009FEDB50B53EC102B01F016FE02460B46F1
:102B80004046214601F0F4FA9FED9F9B804653ECAE
:102B9000192B0D4641EC180B02F040F8099E079CDA
:102BA000B8B99FEDABAB404653EC1A2B294602F067
:102BB0002EF8B0EE489AF0EE689A002804BFB0EE06
:102BC0004A9AF0EE6A9A04E09FED8F9B099EDDE938
:102BD000074786ED009B600736D4002009E100BF5F
:102BE000000000000000103F00000000000050BF87
:102BF000000000000000E03E00000000000020BFD8
:102C0000000000000000B44000000000000044C0CC
:102C10000000000000405540000000000000E03FC0
:102C2000000000000040EFC0000000000000C03EB7
:102C3000000000000000003F000000000000F03F26
:102C40000000000000000000DAF82400D7F8088037
:102C500001F007FD9FED800B53EC102B01F088FA7B
:102C60000446BAF91E000F4601F0FBFC0546BAF90E
:102C700020000E4601F0F5FC9FED790B53EC102B74
:102C800001F092FD02460B4620463946A146BB465E
:102C900001F08AFD9FED740B07460C4653EC102B98
:102CA0002846314601F080FD3A46234601F060FA9D
:102CB000044640460D4601F0EBFC22462B4601F04F
:102CC00057FA0890BAF91A00079101F0CAFC9FED73
:102CD000680B53EC102B01F067FD06909AF81C006E
:102CE000059101F0D5FC9FED640B57EC108B42462B
:102CF0003B4601F059FD4A465B464C465D4601F0B5
:102D000053FD9FED3F0B5646CDF810A05AEC102B0B
:102D10005346039201F02CFA814696F922008B4625
:102D200001F09FFC42463B4601F03EFD02460B4649
:102D30002046294601F038FD4A465B4601F034FD45
:102D4000DDF80C805346424601F012FA07460C4665
:102D5000DDE90510DDE9073201F026FD06460D46E6
:102D6000484659463A46234601F01EFD02460B46A8
:102D70003046294601F018FD054604980F46007EAE
:102D800001F086FC02460B462846394601F00CFD50
:102D90009FED3B0B53EC102B01F006FD42465346D2
:102DA00001F0E6F902460B462846394601F0FCFCE4
:102DB0009FED359B044653EC192B0D4641EC180B47
:102DC00001F017FF88B99FED12AB204653EC1A2B88
:102DD000294601F015FFB0EE489AF0EE689A0028F7
:102DE00004BFB0EE4A9AF0EE6A9A099880ED049B0F
:102DF000002040B20AB0BDEC068B01B0BDE8F08FF8
:102E0000000000000000F03F00000000004CDD402A
:102E10000000000000000000000000000000D0BF23
:102E2000000000000000F0C0000000000000304181
:102E3000000000000000303F00000000006AB840C1
:102E4000000000000000003E000000000000B03F55
:102E50000000000000DBFA400000000000C0F2C0EB
:102E600000000000000010BF00000000000050C083
:102E7000000000000000F03E000000000000503E96
:102E8000000000000000C0BE00000000000059402B
:102E9000F0B587B007460020CDE904004FF0FF00F1
:102EA00081B1164672B1F56885B1306970B170694B
:102EB00060B173680C4604A9F7200822A847307255
:102EC00040B1FE2040B207B0F0BD00BFFF2040B2CD
:102ED00007B0F0BD9DF811109DF810009DF812206C
:102EE000090141EA00309DF814109DF8133040EAC2
:102EF0001210019008019DF8151040EA033040EAD5
:102F00001110BDF816100290080400BA039006F1E3
:102F1000180301A938462246FFF762FC40B207B009
:102F2000F0BD000070B586B0002959D0CD680C46C0
:102F3000002D55D006462069002851D06069002830
:102F40004ED063680DF10201F4200122A8479DF8DC
:102F5000022001460028207218BF6FF0010002F025
:102F600003028DF8022019B912B1204600F09EFB31
:102F7000010603D040B206B070BD00BFE5687DB366
:102F8000206968B3606958B363680DF10301F420E8
:102F90000122A847207218B1FE2040B206B070BDD1
:102FA0009DF80300E16866F301008DF80300B9B1F4
:102FB0002569ADB1616999B1617863688DF80400E4
:102FC0007420012901A94FF0010208BFF420A8478D
:102FD0002072002818BF6FF0010040B206B070BD2B
:102FE000FF2040B206B070BDF0B587B007464FF085
:102FF000FF0031B3144622B3E668002E00F084804F
:103000002069002800F08080606900287CD0636817
:103010000D460DF10601F4200122B0479DF806206F
:1030200001460028207218BF6FF0010002F0030271
:103030008DF8062019B912B1204600F037FB0106C1
:1030400002D040B207B0F0BD780706D03846294616
:10305000224600F0A9FB0028F3D117F0180F15D075
:10306000E668002E50D0206900284DD06069002805
:103070004AD063680DF10701F5200122B0472072A4
:1030800040B1FE2040B207B0F0BD00BF002040B20A
:1030900007B0F0BD380705D4F80610D4E068C8B909
:1030A00032E000BF9DF80700E97800F0E30001F08E
:1030B000070140EA81008DF80700F806EED59DF87B
:1030C0000700297900F01F0040EA41108DF8070041
:1030D000E068C8B12669BEB16069A8B19DF8070073
:1030E000617863688DF808007520012902A94FF006
:1030F000010208BFF520B0472072002818BF6FF00A
:10310000010040B207B0F0BDFF2040B207B0F0BDF3
:10311000B0B586B0054600208DF80300C5B1E8685B
:10312000B0B12C69A4B1686990B16978B6206B68B8
:103130008DF804006020012901A94FF0010208BFA9
:10314000E020A047287238B1FE2040B206B0B0BDE2
:10315000FF2040B206B0B0BD69686A694FF4FA60FA
:103160009047EC6894B1286990B1686990B16B6838
:103170000DF10301F3200122A047287260B1002164
:103180006FF00100002918BF00202AE0FF2028E08E
:10319000FF2026E0FF2024E09DF80300C00701D1B6
:1031A00000201EE069686A694FF4FA609047EC6895
:1031B00094B1286990B1686990B16B680DF1030111
:1031C000F3200122A04700282872D8D19DF80300DF
:1031D000C0070FD1002004E0FF2002E0FF2000E044
:1031E000FF209DF80310C90718BF6FF0050040B21B
:1031F00006B0B0BD69686A694FF4FA609047EC6840
:1032000094B1286990B1686990B16B680DF10301C0
:10321000F3200122A04700282872B0D19DF80300B6
:10322000C00707D10020DCE7FF20DAE7FF20D8E75E
:10323000FF20D6E769686A694FF4FA609047EC6846
:10324000A4B12869A0B16869A0B16B680DF1030150
:10325000F3200122A047002828727FF490AF9DF848
:103260000300C00708D10020BBE700BFFF20B8E77C
:10327000FF20B6E7FF20B4E769686A694FF4FA6097
:103280009047EC68A4B12869A0B16869A0B16B68E7
:103290000DF10301F3200122A047002828727FF4DA
:1032A0006EAF9DF80300C00708D1002099E700BF6A
:1032B000FF2096E7FF2094E7FF2092E769686A699C
:1032C0004FF4FA609047EC6874B1286970B168698E
:1032D00070B16B680DF10301F3200122A047287241
:1032E000B0FA80F041094BE7FF207AE7FF2078E74A
:1032F000FF2076E7000000008CB00027C4F2020730
:10330000FEF736FCFFF798F9002543F63000CDE9CB
:103310000A550695C4F202000168002241F004013A
:1033200001600168202601F00401069106990695C6
:10333000016841F080010160016801F0800106919F
:1033400006990695016841F001010160016801F0EC
:103350000101069106990695016841F0020101609C
:103360000068202100F00200069006983846FDF71C
:10337000B5FD4FF4005007904FF4041007ACCDE9B1
:10338000080507F500602146FDF7C2FC0120CDE9E4
:1033900008053846214607960A95FDF7B9FC40F224
:1033A0000010A7F5D631C2F2000048F2A0624FF437
:1033B0008043C0F2010280E82600C0E90353C0E95F
:1033C0000555C0E90755FDF795FD28B1EFF31080CD
:1033D00072B600BFFEE700BF0020C4F20200A0F5F5
:1033E000DE3140F25410C2F200000C234FF4E132FF
:1033F00080E82600C0E90355C0E90535C561FEF740
:1034000069FF28B1EFF3108072B600BFFEE700BF7E
:1034100040F20014D020C2F200048DF818004FF0E2
:1034200000080A2506AA2046EC2101238DF8178002
:103430000095FEF71DF90DF117022046ED2101233D
:103440000095FDF713FE9DF817000DF11C0A64307E
:103450008DF817008DF81C005046FDF77FF882B2FA
:1034600040F25410C2F2000051464FF0FF33814643
:10347000FEF796FF4FF4FA70FDF736FC9DF8180042
:103480009DF8171001308DF81800481C40F27005A7
:103490008DF81700C2F2000540F2052040F2C00787
:1034A000C0F201402946C2F2000741F8100F1F2068
:1034B0003A46FFF799FD9FED6E0B42F26F149FEDB8
:1034C0006E8B9FED6F9B2870C0F60D2405F13806BA
:1034D00051EC100BCDE9021004960CE00020C4F270
:1034E000020000F540604FF40041FDF7EFFC4FF49F
:1034F0007A70FDF7F9FB46F24850C6F66C4007902B
:1035000050468DF824800894FDF728F882B248468A
:1035100051464FF0FF33FEF743FF4FF4FA70FDF7CB
:10352000E3FB01203946FFF7FDFC28702820FDF75A
:10353000DBFB072031463A46FFF7AAFC002828703B
:10354000CCD1AB464BF8258F0BF11B0090ED000B57
:10355000DDE9023251EC100B4E4600240BF113084A
:1035600000F0BAFE00F0D2FD0BF1230191ED000B4B
:103570004BF8210C51EC100B53EC182B01F014F903
:1035800000F0C4FD98ED000B81464BF81D0C51EC8A
:10359000100B53EC192B00F09FFE00F0B7FD4BF819
:1035A000190CD84648464BF80C4C4BF8084C4BF8D5
:1035B000044C48F8104DCBF80440CBF80840CBF849
:1035C0000C4001F0DDFA02460B4640462EA1FCF706
:1035D000EDFE5BF8210C01F0D3FA02460B4658468B
:1035E0002EA1FCF7E3FE44F24410C4F254100790FD
:1035F00043F23220C2F23210089040F62150C0F25D
:103600000A00CDF823005046FCF7A8FF82B23046EE
:1036100051464FF0FF33FEF7C3FE4FF4FA70FDF74B
:1036200063FB4046FCF79AFF82B2304641464FF0BA
:10363000FF33FEF7B5FE404642F26F1440F2C0077A
:103640004FF00008C0F60D24C2F20007FCF786FF19
:1036500082B2B14630465946049E4FF0FF33FEF722
:103660009FFE4FF4FA70FDF73FFB37E700BF00BF46
:103670000000000000005940000000000000503F22
:10368000000000000088C34048554D49443A2025B9
:1036900030332E3166200A0D0000000054454D5095
:1036A0003A202530332E3166200A0D0070B588B0DF
:1036B000002875D0C6680446002E71D02069002805
:1036C0006ED0606900286BD063680DF10701F220AD
:1036D0000422B047207208B1FE2021E09DF80700C7
:1036E0009DF8091000F007009DF80A508DF80200BF
:1036F000C1F382008DF8000048098DF801006809C7
:10370000C5F382068DF8040020468DF80360FFF7AC
:10371000FFFC28B969461F20224600F045F818B181
:1037200040B208B070BD00BFD4F80CC0BCF1000FAF
:1037300036D02069A0B3606990B363680DF10B01C6
:10374000F5200122E047207220B1FE2040B208B0EF
:1037500070BD00BF9DF80B00E26800F0030040EA76
:10376000860005F0E00108448DF80B00C2B126691F
:10377000B6B16169A1B1617863688DF80C007520FC
:10378000012903A94FF0010208BFF520B0472072BC
:10379000002818BF6FF0010040B208B070BD00BF34
:1037A000FF2040B208B070BD2DE9F04186B014464C
:1037B00006464007884601D401204AE0002C47D045
:1037C000E068002844D02769002F41D060690028B4
:1037D0003ED098F80200617800F0070063688DF829
:1037E00004007220012901A94FF0010208BFF22054
:1037F000B847207210B1FE202BE000BFE7683FB34E
:10380000206928B3606918B363680DF10301F420DF
:103810000122B84700282072EDD1E068C0B12769C5
:10382000B7B16069A0B19DF80300617863688DF855
:1038300004007420012901A94FF0010208BFF420FF
:10384000B8472072002818BF6FF0010001E000BFE8
:10385000FF20B70713D0002C54D0E568002D51D0BD
:10386000206900284ED0606900284BD063680DF1B4
:103870000301F4200122A847207228B1FE2040B2A3
:1038800006B0BDE8F08100BFF00705D1002F11D4CC
:10389000E068D8B936E000BF9DF8030098F8001042
:1038A00000F0E30001F0070140EA81008DF8030019
:1038B000002FEDD59DF8030098F8011000F01F00CF
:1038C00040EA41108DF80300E068D8B12769CFB114
:1038D0006069B8B19DF80300617863688DF80400F1
:1038E0007420012901A94FF0010208BFF420B84754
:1038F0002072002818BF6FF0010040B206B0BDE88A
:10390000F08100BFFF2040B206B0BDE8F0815FEA61
:10391000400C08BF91F0000F4FEA8C234FEAC12200
:1039200043EA51514FEA1C5018BF00F5F0404FEAEE
:10393000300018BF41F000415FEA6C5C00F0298064
:10394000BCF1FF3F08BF40F080407047130C06BF3A
:1039500012044FF0100C4FF0000C130E04BF1202B3
:103960000CF1080C130F04BF12010CF1040C930F9F
:1039700004BF92000CF1020CD30F04BF52000CF1F3
:10398000010C11464FF00002A0F11F00A0EB0C004B
:10399000704711F0004F08BF704731F000413FF40D
:1039A000D5AF0B0C06BF09044FF0100C4FF0000C04
:1039B0000B0E04BF09020CF1080C0B0F04BF090128
:1039C0000CF1040C8B0F04BF89000CF1020CCB0F1F
:1039D00004BF49000CF1010CCCF1200322FA03F3DF
:1039E00041EA030102FA0CF2A0EB0C0000F1010025
:1039F0007047000023F07F4720F07F4C80EA0300EF
:103A000000F00040ACEB070303F57C5303F1FF0328
:103A10002DE9804909B44FEA144324EA03484FEAE8
:103A2000154B25EA0B4E0FF2042606EB13273E78C2
:103A300003FB0667C7F5000707FB06F64FEAD64605
:103A400006F102064FEA543707FB066CCCF1005C26
:103A50004FEA1C472CEA074C0CFB06F507FB06F463
:103A600004EB15464FEA961649085FEA320234BF66
:103A700000204FF000404FEAD13706FB07FC4FEA29
:103A80001C4C0CFB0BF7D21B03FB0CF761EB070183
:103A90000CFB0EF7B0EB074072EB17420CFB08F77C
:103AA00034BFA2EB0742B2EB074261EB17414FEA8A
:103AB0000C444FEA910706FB07FC4FEA1C4C0CFB39
:103AC0000BF7B0EBC74072EB573203FB0CF734BF78
:103AD000A2EBC742B2EBC74261EB57310CFB0EF7CA
:103AE000B0EBC70072EB57720CFB08F734BFA2EBC8
:103AF000C702B2EBC70261EB57714FEA816141EA3D
:103B000092114FEA826242EA90124FEA806004EB1F
:103B1000CC04039F4FEAD13706FB07FC4FEA1C4C4D
:103B20000CFB0BF7D21B03FB0CF761EB07010CFB43
:103B30000EF7B0EB074072EB17420CFB08F734BFEF
:103B4000A2EB0742B2EB074261EB17414FEA8C55FB
:103B500004EB9C244FEA910706FB07FC4FEA1C4C40
:103B60000CFB0BF7B0EBC74072EB573203FB0CF7C3
:103B700034BFA2EBC742B2EBC74261EB57310CFB3B
:103B80000EF7B0EBC70072EB57720CFB08F734BFAF
:103B9000A2EBC702B2EBC70261EB57714FEA81613A
:103BA00041EA92114FEA826242EA90124FEA806043
:103BB00015EB4C2544F100044FEAD13706FB07FC16
:103BC0004FEA1C4C0CFB0BF7D21B03FB0CF761EB11
:103BD00007010CFB0EF7B0EB074072EB17420CFB32
:103BE00008F734BFA2EB0742B2EB074261EB174183
:103BF0004FEA813141EA92414FEA823242EA9042F1
:103C00004FEA80304FEA0C7615EB1C1544F10004A6
:103C100048EA03434EEA0B484FF0000EB2EB080CA3
:103C200071EB030724BF624639464EEB0E0E4FF090
:103C3000000B0018524149414BEB0B0BB2EB080C47
:103C400071EB03077BF1000B24BF624639464EEB54
:103C50000E0E4FF0000B0018524149414BEB0B0B7D
:103C6000B2EB080C71EB03077BF1000B24BF62463B
:103C700039464EEB0E0E51EA020718BF46F0010618
:103C800016EB0E7655F1000254F1000103D5BDE8A4
:103C90008901BDE80088BDE88901BDE80048B61982
:103CA000524141EB0101A3F10103704780807F7E07
:103CB0007D7C7B7A797877767675747372717170A2
:103CC0006F6E6E6D6C6C6B6A6A6968686766666554
:103CD0006464636362616160605F5F5E5E5D5D5CE2
:103CE0005C5B5B5A5A595958585757565655555553
:103CF0005454535352525251515050504F4F4F4EB3
:103D00004E4D4D4D4C4C4C4B4B4B4A4A4A49494900
:103D10004848484747474746464645454544444442
:103D20004443434343424242424141419C46002B6B
:103D300030D477002BD04FEA37071CB503B44FF0CF
:103D400010004FF01001BAF1000F06D0BCF1000FC7
:103D5000DCBF40F0080040F008014FF000000FBC4D
:103D6000BDE810400BF1010BBBF1010F08BF5FEA8A
:103D7000170722BF12F1010211F101014FF00041BA
:103D800043F1000300F0004043EA00007047F9D31C
:103D90005708D0E746EA06464FEA164613F1400FA9
:103DA0001FDD13F1200FDFBF16430A460021203329
:103DB0005B42BED0C3F1200746EA06464FEA1646EC
:103DC00002FA07F746EA070622FA03F2C3F12007D0
:103DD00001FA07F742EA070221FA03F14FF0000364
:103DE000A7E746EA020646EA06464FEA164646EACC
:103DF0000106BCBF46EA0646360C4FF000034FF002
:103E000000024FF0000194E72DE9804C70B49A460F
:103E1000934691E8380007C831EA400C48BF34EABD
:103E2000430C03D5FFF7E6FDFFF780FFF0BCBDE8CC
:103E3000008C2DE9804C70B49A46934691E8380086
:103E400007C810F0804F08BF13F0804F03D100F077
:103E500005F8FFF76BFFF0BCBDE8008C20F07F4752
:103E600023F07F4C80EA030000F0004007EB0C03D6
:103E7000A3F57C53A3F1FE0392F0000F00F0B38092
:103E800095F0000F00F077802DE901494FEA1140CD
:103E900021EA00484FEA144624EA064700FB06FCE4
:103EA00008FB06F607FB08F818EB06484CEB164C27
:103EB00000FB07F718EB07484CEB17404FEA124B93
:103EC00022EA0B4E4FEA154625EA06470BFB06FC95
:103ED0000EFB06F607FB0EFE1EEB064E4CEB164CD9
:103EE0000BFB07F71EEB074E4CEB174B18EB0B08C1
:103EF00040F1000018EB0E0B58EB000840F10000F9
:103F00008F1A4FF000014FF000063CBFC943661BFB
:103F100014BFB5EB040C00213CBFC943F61B4FEAAC
:103F2000174427EA04454FEA1C472CEA074C04FBD8
:103F3000076205FB07F70CFB05F616EB074642EB9D
:103F4000174204FB0CFC16EB0C4642EB1C421BEB2D
:103F5000060658EB020241414EEA8E0E46EA9E06E4
:103F600001D5BDE80189B619524141EB0101A3F128
:103F70000103BDE801894FEA144524EA05464FEAEA
:103F8000114721EA074C05FB07F406FB07F70CFB7A
:103F900006F111EB074144EB174405FB0CFC11EB58
:103FA0000C4144EB1C444FEA124722EA074C05FB44
:103FB00007F206FB07F70CFB06F616EB074642EB8B
:103FC000174205FB0CFC16EB0C4642EB1C456A182D
:103FD00054F1000148BF7047B619524141EB01014D
:103FE000A3F10103704795F0000F37D04FEA11425B
:103FF00021EA02464FEA144724EA074C02FB07F184
:1040000006FB07F70CFB06F414EB074441EB1741E2
:1040100002FB0CFC14EB0C4441EB1C414FEA15472E
:1040200025EA074C02FB07F506FB07F70CFB06F633
:1040300016EB074645EB174502FB0CFC16EB0C464E
:1040400045EB1C42121951F1000148BF7047B619E7
:10405000524141EB0101A3F1010370474FEA1445BE
:1040600024EA05464FEA114721EA074C05FB07F110
:1040700006FB07F70CFB06F212EB074241EB174178
:1040800005FB0CFC12EB0C4251EB1C414FF00006FF
:1040900048BF7047921841EB0101A3F1010370473B
:1040A00003B401984100009850EAC12018BF0420D1
:1040B0004A0D18BF40F0010040F2FF72B2EB515FB1
:1040C00008BF40F00200012808BF052002B0704779
:1040D00030380A2801D201207047002070470000C4
:1040E00010B500290AD00878002807D00548784480
:1040F000FCF7B2FD002801D0002010BD0248784432
:1041000010BD0000CE0C0000C60C000021F00042E3
:1041100001F00043A2F16052B2F5801F28BFD2F136
:104120007F6C0BD95FEA001C43EAC20242EB50707D
:1041300018BF704728BF20F001007047B2F5801FFC
:10414000BCBF184670474FEA410C1CF5001F02D255
:10415000084600F0BDBD70B500F0D0FB000000893E
:10416000FFF7F6BF4FF00040A0F580007047000059
:1041700010B591EA030F48BF83F0004300F11A84A1
:10418000841A71EB030C05D2121943EB0C03001BCC
:1041900061EB0C014FEA1154A4EB135CDFF81CE156
:1041A0001EEA430F18BF9EEA445F00F0748021EAC4
:1041B000045123EA0E0343F48013DCF1200E32D3C2
:1041C00022FA0CFE10EB0E0023FA0CFE41EB0E015E
:1041D000CCF1200E03FA0EFE10EB0E00CCF1200EF7
:1041E00051F10001B1F5801F32D201EB045112FAF6
:1041F0000EF2BDE8104058BF7047401C38BF5FEA60
:10420000420218BF7047002814BF20F0010041F19E
:1042100000014FEA410313F5001F38BF7047A1F1B9
:10422000C04100F0B9BB012A43EB0302ACF1200C02
:10423000DCF11F0E32BF4FF0000E23FA0CF310EB2F
:10424000030041EB0451B4EB115FD0D0A1EB04515A
:1042500001F58011490801EB04515FEA30000ED3EB
:1042600050F1000038BF12FA0EFE08D1BDE8104030
:10427000C9E7401C38BF5FEA4202CAD1C3E7BDE8C4
:1042800010404FEA410313F5001F38BF7047A1F1FA
:10429000C04100F081BB9EEA445F08D011EA5E0F86
:1042A000BDE8104004BF01F0004100207047BDE8A8
:1042B000104070B500F022FB64FBBE3E0000E0FF42
:1042C000491058BFC1F140415B1058BFC3F1404392
:1042D0008B42EFF3008070472DE9C04130B4DFF826
:1042E000A4C23CEA111418BF3CEA131400F0ED809C
:1042F0001CEA111481EA030544EAD57418BF1CEACC
:10430000131500F0C880A4EB050404F17F7404F5D4
:1043100000344FF0004545EAC12145EAC32341EA94
:10432000505143EA52534FEAC0204FEAC222994209
:1043300008BF904200F09D804FEA13650FF24416CB
:10434000765D4FEA134506FB05F7C7F1807706FB5C
:1043500007F74FEAD737A7FB03687642A7FB06CEDD
:10436000C8F5803838BFA8F1010807FB08E6A6FBAE
:10437000028C4FF0000EE6FB03CEDCF1000CCEF118
:10438000004E38BFAEF1010EA6FB0C584FF00007EF
:10439000E6FB0E87A1FB08C6A0FB07CE16EB0E06B8
:1043A0004FF0000545F10005E1FB076515F1E04E12
:1043B0007EBFA4F580345FEA46066D4116F18007A2
:1043C00045F100054FEA172747EA05674FEA15252B
:1043D0004FEA0666A6F1DE46B6F1805F20D9384680
:1043E00005EBC47124F0010C01EB0C11BCF1FE6F64
:1043F00002D8F0BCBDE8008124425CBF01F5801EFC
:104400009EEAC47F02D4F0BCBDE80081244200F1E2
:104410003980A1F1C041F0BCBDE8004100F0BCBA58
:104420004FEAD02040EA41504FEAD1214FEAD22250
:1044300042EA43524FEAD323A7FB028607FB0366F7
:1044400005FB02661EEA0E0F58BFA6EB0056B6EB40
:1044500000564FEA520E4EEAC37E18EB0E0E56EB94
:10446000530EBCD518EB02085E417F1C55F10005C8
:10447000B5E74FF480154FF000074FF000064FF0FE
:104480000008ACE701F1C04101F000414FF000002D
:10449000F0BCBDE800810CEA131511EA0C1F00D036
:1044A0000CE013EA0C1F00F026804FF0000081EAB8
:1044B000030101F00041F0BCBDE80081F0BCBDE8A3
:1044C000004181EA030100F067BAF0BCBDE8004199
:1044D00070B500F013FA00BF097EFC3E00F007B88B
:1044E0004FF0000081EA030101F00041704781EACA
:1044F000030100F051BAF0BCBDE8004122494FF081
:1045000000007047FFFDFBF9F7F5F4F2F0EEEDEB7C
:10451000E9E8E6E4E3E1E0DEDDDBDAD8D7D5D4D3C1
:10452000D1D0CFCDCCCBCAC8C7C6C5C4C2C1C0BF0D
:10453000BEBDBCBBBAB9B8B7B6B5B4B3B2B1B0AF13
:10454000AEADACABAAA9A8A8A7A6A5A4A3A3A2A1F7
:10455000A09F9F9E9D9C9C9B9A99999897979695B2
:1045600095949393929191908F8F8E8E8D8C8C8B4E
:104570008B8A8989888887878685858484838382D6
:10458000828181800000FF070000F87F51EA030C60
:1045900017D41CF5801F58BFBCF5801F00F10680A2
:1045A000994218BF704708BF9042704707D711F56E
:1045B000801F58BF13F5801F19D499427047894254
:1045C00070471CF5801F08D5BCF5801FF7D58B42BE
:1045D00018BF704708BF824270474FF4001C1CEBA5
:1045E000410F38BF1CEB430F01D28B42704770B5AF
:1045F00000F084F9922449004FF000514FF08053AD
:10460000FFF75EBE4FEA41034FEA5353A3F58063C1
:10461000D3F11E03C8BFD3F1210C0CDD4FF00042D3
:1046200042EAC12242EA505232FA03FC8CEAE17CAF
:10463000ACEBE1707047102BC4BF0020704703F54E
:10464000787CBCF1FF3F04D06FF0004282EA210089
:10465000704770B500F052F94992248000207047ED
:10466000F2E710F0004248BF4042B0FA80F310FA7F
:1046700003F10AD0C3F11D0303F5806302EB03527B
:104680004FEA415002EBD12170474FF000007047D4
:10469000B0FA80F310FA03F10AD0C3F11D0303F559
:1046A00080634FEA03524FEA415002EBD121704739
:1046B0004FF000007047000051EA030C17D41CF5BE
:1046C000801F58BFBCF5801F00F10680994218BFBB
:1046D000704708BF9042704707D711F5801F58BF39
:1046E00013F5801F19D499427047894270471CF511
:1046F000801F08D5BCF5801FF7D58B4218BF7047C7
:1047000008BF824270474FF4001C1CEB410F38BFBA
:104710001CEB430F01D28B42704770B500F0EEF8EE
:10472000922449004FF080514FF00053FFF7C8BD6D
:1047300051EA030C17D41CF5801F58BFBCF5801F2D
:1047400000F10680994218BF704708BF9042704739
:1047500007D711F5801F58BF13F5801F19D4994250
:104760007047894270471CF5801F08D5BCF5801F33
:10477000F7D58B4218BF704708BF824270474FF48D
:10478000001C1CEB410F38BF1CEB430F01D28B42C6
:10479000704770B500F0B2F8922449004FF0005114
:1047A0004FF08053FFF78CBD70B5DFF848C11CEAAD
:1047B000111E1EBF1CEA13159EEA0C0F95EA0C0F82
:1047C00000F06F8081EA03044EEAD47EAE4421EA11
:1047D0004C1123EA4C1341F4801143F48013AEF1E1
:1047E0007F7EA1FB024CA0FB0365361955EB0C053F
:1047F000A1FB034C4CF10003A0FB021C16EB0C06C2
:10480000654153F10003094218BF46F0010613F455
:10481000007F0BD14FEA03314FEA053041EA1551D1
:1048200040EA165034036FF003020AE04FEAC32156
:104830004FEAC52041EA555140EA5650F4026FF064
:10484000020202EB2E4201EB025585EACE710AD03C
:104850005FEA440C18BF24F0004450F1000041F11D
:10486000000120EAD47040F2FE7C624500D270BDA7
:10487000A84214BF4FF080444FF04044002E08BFC0
:104880000024BEF1806FA8BFA1F1C041BDE8704017
:1048900080F2828001F1C04101F000414FF0000040
:1048A00070470CEA13159EEA0C0F18BF95EA0C0F1F
:1048B00006D081EA030E4FF000000EF0004170BDFB
:1048C00000F01CF88900013E00F007B800F009B8BC
:1048D0004FEA430C5FEA5C5C08D081EA030100F018
:1048E0005BB84FEA410C5FEA5C5CF6D102494FF0DD
:1048F000000070470000FF070000F87F0EF1020E75
:104900002EF0030E5EF8046B364205D4012A43EB09
:10491000030515F5001F12D8012841EB010C1CF509
:10492000001F0CD80ED14FEAD17C0CEB4C0C0CF1D3
:10493000020C15F5001F08BF4CEBD37C04E04FF0D0
:10494000080C01E04FEAD37C0CEB4C0526FA05F687
:1049500006F00706B6F1040C06D20EEB860CBDE895
:1049600070404CF0010C6047DFE80CF0090B0202CC
:104970004FF00041A1F500214FF0000070BD194635
:104980001046012851EB010418BFD4F5001484BF70
:10499000002001F0004170BD0808A0F500114FEAA9
:1049A0003101704710B591EA030F48BF83F000430F
:1049B0003FF5E6AB841A71EB030C07D28CF0004C88
:1049C000121943EB0C03001B61EB0C014FEA11546D
:1049D000A4EB135CDFF8A4E11EEA430F18BF9EEAC4
:1049E000445F00F0B48021EA045123EA6E0352428E
:1049F000C3EB6E0338BF5B1EDCF1200E25D322FA19
:104A00000CFE10EB0E0043FA0CFE41EB0E01CCF154
:104A1000200E03FA0EFE10EB0E00CCF1200E51F129
:104A2000000129D401EB045112FA0EF2BDE8104046
:104A300058BF7047401C1CBFB2F1004F70470028A0
:104A40000CBF491C20F00100704712EB020E43EB33
:104A5000030218BF4FF0010E4EEA4202ACF1200CE7
:104A6000DCF11E0E56D943FA0CFE10EB0E00CCF111
:104A70001E0E51F1FF31D5D50EF1010E12FA0EFEC8
:104A8000404141EB010101EB445C5FEA5C5C10D901
:104A900001EB045110EBDE7038BFBEF1004FBDE8F2
:104AA000104018BF704700280CBF491C20F00100BF
:104AB000704734D24FEAD42C24F4006411F500116D
:104AC0001BD0B1FA81F20B3AA41AA41ED2F1200332
:104AD000914030FA03F31943904001EBCC7101EBA4
:104AE0000451002CBDE81040A8BF704701F1C0413F
:104AF00001F000414FF000007047B0FA80F310FA67
:104B000003F102D1BDE810407047E41A173C480594
:104B1000C90AE2E701EB0451BDE8104070474910B3
:104B20004FEA300001EB0451BDE8104002E04FF0C5
:104B3000000170474A0008BF0042F8D0B2F5001FDC
:104B400028BF704701F000414FF0000070479EEA17
:104B5000445F07D011EA5E0FBDE8104004BF00219A
:104B600000207047BDE8104070B5FFF7C7FE00BFDA
:104B700040DFF63E104683F0004170470000E0FF42
:104B800043004FEAD30C4FEA3C0C43401FBF4007A1
:104B90000CF1605113F0FE4F70471CF0006F03D111
:104BA0000CF00041002070470CF0004343EA5070C5
:104BB00040EACC0010B500F038F800BF00000092C9
:104BC0004FEA0001FFF7E8BE4FF00041A1F50021D8
:104BD0004FF00000704710B5FFF7D8FC0CBF012064
:104BE000002010BD10B5FFF7D1FC14BF012000203C
:104BF00010BD10B5FFF760FD8CBF0120002010BD77
:104C000010B5FFF759FD2CBF0120002010BD10B5D5
:104C1000FFF78EFD94BF0120002010BD10B5FFF7F7
:104C200087FD34BF0120002010BD0EF1020E2EF0D2
:104C3000030E5EF8044B244204D44FEA4102B2F161
:104C40007F4F11D84FEA4003B3F17F4F0CD80ED1FC
:104C50004FEAD07C0CEB4C0C0CF1020CB2F17F4F04
:104C600008BF4CEBD17C04E04FF0080C01E04FEAA8
:104C7000D17C0CEB4C0324FA03F404F00704B4F1E8
:104C8000040C06D20EEB840CBDE810404CF0010C75
:104C90006047DFE80CF0070802024FF00040A0F583
:104CA000800010BD0846420018BFD2F1807288BF54
:104CB00000F0004010BDF1EE100A4FF6FF71C0F297
:104CC000C03120EA010040F04070E1EE100A704768
:104CD000FF2141EAD050C0057047FBF739BD040001
:104CE00000080000000000000002000100001000A9
:104CF00002400000000000A000000000054000008D
:104D0000000000C8000000000C4000000000409CB3
:104D100000000000194000000020BCBE00000000A0
:104D200034400000BFC91B8E00000004B5400000E5
:104D3000504BCFD06607E2CF010000006C4100006D
:104D40003E8251AADFEEA73401000000D9420000E4
:104D5000DCB5A0E23A301F97FFFFFFFFB44500002B
:104D6000FD25A0C8E9A3C14FFFFFFFFFFF3F0000E3
:104D70000000008000000000FF3F000000000080F5
:104D80000000000000000000000000000102030419
:104D9000060708090000000001020304D84D0008BE
:104DA000000000201000000000020008E84D00088C
:104DB00010000020900700001C0200081C000000EA
:104DC00043000000F8FFFFFF0C0000000E00000091
:104DD0000F0000002E000000010000001000000085
:084DE0000024F40000000000B3
:04000005080001C529
:00000001FF
